{"contracts/OurTube.sol":{"Ourtube":{"abi":[{"inputs":[],"stateMutability":"nonpayable","type":"constructor"},{"anonymous":false,"inputs":[{"indexed":false,"internalType":"uint256","name":"id","type":"uint256"},{"indexed":false,"internalType":"string","name":"hash","type":"string"},{"indexed":false,"internalType":"string","name":"title","type":"string"},{"indexed":false,"internalType":"string","name":"description","type":"string"},{"indexed":false,"internalType":"string","name":"location","type":"string"},{"indexed":false,"internalType":"string","name":"category","type":"string"},{"indexed":false,"internalType":"string","name":"thumbnailHash","type":"string"},{"indexed":false,"internalType":"bool","name":"isAudio","type":"bool"},{"indexed":false,"internalType":"string","name":"date","type":"string"},{"indexed":false,"internalType":"address","name":"author","type":"address"}],"name":"VideoUploaded","type":"event"},{"inputs":[],"name":"name","outputs":[{"internalType":"string","name":"","type":"string"}],"stateMutability":"view","type":"function"},{"inputs":[{"internalType":"string","name":"_videoHash","type":"string"},{"internalType":"string","name":"_title","type":"string"},{"internalType":"string","name":"_description","type":"string"},{"internalType":"string","name":"_location","type":"string"},{"internalType":"string","name":"_category","type":"string"},{"internalType":"string","name":"_thumbnailHash","type":"string"},{"internalType":"bool","name":"_isAudio","type":"bool"},{"internalType":"string","name":"_date","type":"string"}],"name":"uploadVideo","outputs":[],"stateMutability":"nonpayable","type":"function"},{"inputs":[],"name":"videoCount","outputs":[{"internalType":"uint256","name":"","type":"uint256"}],"stateMutability":"view","type":"function"},{"inputs":[{"internalType":"uint256","name":"","type":"uint256"}],"name":"videos","outputs":[{"internalType":"uint256","name":"id","type":"uint256"},{"internalType":"string","name":"hash","type":"string"},{"internalType":"string","name":"title","type":"string"},{"internalType":"string","name":"description","type":"string"},{"internalType":"string","name":"location","type":"string"},{"internalType":"string","name":"category","type":"string"},{"internalType":"string","name":"thumbnailHash","type":"string"},{"internalType":"bool","name":"isAudio","type":"bool"},{"internalType":"string","name":"date","type":"string"},{"internalType":"address","name":"author","type":"address"}],"stateMutability":"view","type":"function"}],"evm":{"bytecode":{"linkReferences":{},"object":"6000805560c0604052601060808190526f13dd5c9d1d58994810dbdb9d1c9858dd60821b60a0908152620000379160019190620000fa565b503480156200004557600080fd5b5062000085604051806040016040528060118152602001704465706c6f79696e67204f75745475626560781b8152506200008b60201b6200075e1760201c565b62000235565b620000d681604051602401620000a29190620001a0565b60408051601f198184030181529190526020810180516001600160e01b0390811663104c13eb60e21b17909152620000d916565b50565b80516a636f6e736f6c652e6c6f67602083016000808483855afa5050505050565b8280546200010890620001f8565b90600052602060002090601f0160209004810192826200012c576000855562000177565b82601f106200014757805160ff191683800117855562000177565b8280016001018555821562000177579182015b82811115620001775782518255916020019190600101906200015a565b506200018592915062000189565b5090565b5b808211156200018557600081556001016200018a565b600060208083528351808285015260005b81811015620001cf57858101830151858201604001528201620001b1565b81811115620001e2576000604083870101525b50601f01601f1916929092016040019392505050565b600181811c908216806200020d57607f821691505b602082108114156200022f57634e487b7160e01b600052602260045260246000fd5b50919050565b610c1880620002456000396000f3fe608060405234801561001057600080fd5b506004361061004c5760003560e01c806306fdde0314610051578063b20f24bf1461006f578063c61b5f4c14610084578063e6821bf51461009b575b600080fd5b6100596100c4565b60405161006691906108ab565b60405180910390f35b61008261007d36600461097d565b610152565b005b61008d60005481565b604051908152602001610066565b6100ae6100a9366004610aa9565b610347565b6040516100669a99989796959493929190610ac2565b600180546100d190610b7e565b80601f01602080910402602001604051908101604052809291908181526020018280546100fd90610b7e565b801561014a5780601f1061011f5761010080835404028352916020019161014a565b820191906000526020600020905b81548152906001019060200180831161012d57829003601f168201915b505050505081565b600088511161016057600080fd5b600087511161016e57600080fd5b3361017857600080fd5b60008054908061018783610bb9565b909155505060408051610140810182526000805480835260208084018d81528486018d9052606085018c9052608085018b905260a085018a905260c0850189905287151560e0860152610100850187905233610120860152918352600281529390912082518155905180519293919261020692600185019201906107c5565b50604082015180516102229160028401916020909101906107c5565b506060820151805161023e9160038401916020909101906107c5565b506080820151805161025a9160048401916020909101906107c5565b5060a082015180516102769160058401916020909101906107c5565b5060c082015180516102929160068401916020909101906107c5565b5060e082015160078201805460ff191691151591909117905561010082015180516102c79160088401916020909101906107c5565b506101209190910151600990910180546001600160a01b0319166001600160a01b039092169190911790556000546040517f59b01d7253e58066e08807923c0472b8bca64305f2cb0443a998c4c6f7ca8a0191610335918b908b908b908b908b908b908b908b903390610ac2565b60405180910390a15050505050505050565b6002602052600090815260409020805460018201805491929161036990610b7e565b80601f016020809104026020016040519081016040528092919081815260200182805461039590610b7e565b80156103e25780601f106103b7576101008083540402835291602001916103e2565b820191906000526020600020905b8154815290600101906020018083116103c557829003601f168201915b5050505050908060020180546103f790610b7e565b80601f016020809104026020016040519081016040528092919081815260200182805461042390610b7e565b80156104705780601f1061044557610100808354040283529160200191610470565b820191906000526020600020905b81548152906001019060200180831161045357829003601f168201915b50505050509080600301805461048590610b7e565b80601f01602080910402602001604051908101604052809291908181526020018280546104b190610b7e565b80156104fe5780601f106104d3576101008083540402835291602001916104fe565b820191906000526020600020905b8154815290600101906020018083116104e157829003601f168201915b50505050509080600401805461051390610b7e565b80601f016020809104026020016040519081016040528092919081815260200182805461053f90610b7e565b801561058c5780601f106105615761010080835404028352916020019161058c565b820191906000526020600020905b81548152906001019060200180831161056f57829003601f168201915b5050505050908060050180546105a190610b7e565b80601f01602080910402602001604051908101604052809291908181526020018280546105cd90610b7e565b801561061a5780601f106105ef5761010080835404028352916020019161061a565b820191906000526020600020905b8154815290600101906020018083116105fd57829003601f168201915b50505050509080600601805461062f90610b7e565b80601f016020809104026020016040519081016040528092919081815260200182805461065b90610b7e565b80156106a85780601f1061067d576101008083540402835291602001916106a8565b820191906000526020600020905b81548152906001019060200180831161068b57829003601f168201915b5050506007840154600885018054949560ff9092169491935091506106cc90610b7e565b80601f01602080910402602001604051908101604052809291908181526020018280546106f890610b7e565b80156107455780601f1061071a57610100808354040283529160200191610745565b820191906000526020600020905b81548152906001019060200180831161072857829003601f168201915b505050600990930154919250506001600160a01b03168a565b6107a18160405160240161077291906108ab565b60408051601f198184030181529190526020810180516001600160e01b031663104c13eb60e21b1790526107a4565b50565b80516a636f6e736f6c652e6c6f67602083016000808483855afa5050505050565b8280546107d190610b7e565b90600052602060002090601f0160209004810192826107f35760008555610839565b82601f1061080c57805160ff1916838001178555610839565b82800160010185558215610839579182015b8281111561083957825182559160200191906001019061081e565b50610845929150610849565b5090565b5b80821115610845576000815560010161084a565b6000815180845260005b8181101561088457602081850181015186830182015201610868565b81811115610896576000602083870101525b50601f01601f19169290920160200192915050565b6020815260006108be602083018461085e565b9392505050565b634e487b7160e01b600052604160045260246000fd5b600082601f8301126108ec57600080fd5b813567ffffffffffffffff80821115610907576109076108c5565b604051601f8301601f19908116603f0116810190828211818310171561092f5761092f6108c5565b8160405283815286602085880101111561094857600080fd5b836020870160208301376000602085830101528094505050505092915050565b8035801515811461097857600080fd5b919050565b600080600080600080600080610100898b03121561099a57600080fd5b883567ffffffffffffffff808211156109b257600080fd5b6109be8c838d016108db565b995060208b01359150808211156109d457600080fd5b6109e08c838d016108db565b985060408b01359150808211156109f657600080fd5b610a028c838d016108db565b975060608b0135915080821115610a1857600080fd5b610a248c838d016108db565b965060808b0135915080821115610a3a57600080fd5b610a468c838d016108db565b955060a08b0135915080821115610a5c57600080fd5b610a688c838d016108db565b9450610a7660c08c01610968565b935060e08b0135915080821115610a8c57600080fd5b50610a998b828c016108db565b9150509295985092959890939650565b600060208284031215610abb57600080fd5b5035919050565b60006101408c8352806020840152610adc8184018d61085e565b90508281036040840152610af0818c61085e565b90508281036060840152610b04818b61085e565b90508281036080840152610b18818a61085e565b905082810360a0840152610b2c818961085e565b905082810360c0840152610b40818861085e565b905085151560e0840152828103610100840152610b5d818661085e565b91505060018060a01b0383166101208301529b9a5050505050505050505050565b600181811c90821680610b9257607f821691505b60208210811415610bb357634e487b7160e01b600052602260045260246000fd5b50919050565b6000600019821415610bdb57634e487b7160e01b600052601160045260246000fd5b506001019056fea264697066735822122056ce54ecdd0b3b7e201b6d999e4d2cf5a913cfbd5d59b79806328c5800aea86064736f6c63430008090033","opcodes":"PUSH1 0x0 DUP1 SSTORE PUSH1 0xC0 PUSH1 0x40 MSTORE PUSH1 0x10 PUSH1 0x80 DUP2 SWAP1 MSTORE PUSH16 0x13DD5C9D1D58994810DBDB9D1C9858DD PUSH1 0x82 SHL PUSH1 0xA0 SWAP1 DUP2 MSTORE PUSH3 0x37 SWAP2 PUSH1 0x1 SWAP2 SWAP1 PUSH3 0xFA JUMP JUMPDEST POP CALLVALUE DUP1 ISZERO PUSH3 0x45 JUMPI PUSH1 0x0 DUP1 REVERT JUMPDEST POP PUSH3 0x85 PUSH1 0x40 MLOAD DUP1 PUSH1 0x40 ADD PUSH1 0x40 MSTORE DUP1 PUSH1 0x11 DUP2 MSTORE PUSH1 0x20 ADD PUSH17 0x4465706C6F79696E67204F757454756265 PUSH1 0x78 SHL DUP2 MSTORE POP PUSH3 0x8B PUSH1 0x20 SHL PUSH3 0x75E OR PUSH1 0x20 SHR JUMP JUMPDEST PUSH3 0x235 JUMP JUMPDEST PUSH3 0xD6 DUP2 PUSH1 0x40 MLOAD PUSH1 0x24 ADD PUSH3 0xA2 SWAP2 SWAP1 PUSH3 0x1A0 JUMP JUMPDEST PUSH1 0x40 DUP1 MLOAD PUSH1 0x1F NOT DUP2 DUP5 SUB ADD DUP2 MSTORE SWAP2 SWAP1 MSTORE PUSH1 0x20 DUP2 ADD DUP1 MLOAD PUSH1 0x1 PUSH1 0x1 PUSH1 0xE0 SHL SUB SWAP1 DUP2 AND PUSH4 0x104C13EB PUSH1 0xE2 SHL OR SWAP1 SWAP2 MSTORE PUSH3 0xD9 AND JUMP JUMPDEST POP JUMP JUMPDEST DUP1 MLOAD PUSH11 0x636F6E736F6C652E6C6F67 PUSH1 0x20 DUP4 ADD PUSH1 0x0 DUP1 DUP5 DUP4 DUP6 GAS STATICCALL POP POP POP POP POP JUMP JUMPDEST DUP3 DUP1 SLOAD PUSH3 0x108 SWAP1 PUSH3 0x1F8 JUMP JUMPDEST SWAP1 PUSH1 0x0 MSTORE PUSH1 0x20 PUSH1 0x0 KECCAK256 SWAP1 PUSH1 0x1F ADD PUSH1 0x20 SWAP1 DIV DUP2 ADD SWAP3 DUP3 PUSH3 0x12C JUMPI PUSH1 0x0 DUP6 SSTORE PUSH3 0x177 JUMP JUMPDEST DUP3 PUSH1 0x1F LT PUSH3 0x147 JUMPI DUP1 MLOAD PUSH1 0xFF NOT AND DUP4 DUP1 ADD OR DUP6 SSTORE PUSH3 0x177 JUMP JUMPDEST DUP3 DUP1 ADD PUSH1 0x1 ADD DUP6 SSTORE DUP3 ISZERO PUSH3 0x177 JUMPI SWAP2 DUP3 ADD JUMPDEST DUP3 DUP2 GT ISZERO PUSH3 0x177 JUMPI DUP3 MLOAD DUP3 SSTORE SWAP2 PUSH1 0x20 ADD SWAP2 SWAP1 PUSH1 0x1 ADD SWAP1 PUSH3 0x15A JUMP JUMPDEST POP PUSH3 0x185 SWAP3 SWAP2 POP PUSH3 0x189 JUMP JUMPDEST POP SWAP1 JUMP JUMPDEST JUMPDEST DUP1 DUP3 GT ISZERO PUSH3 0x185 JUMPI PUSH1 0x0 DUP2 SSTORE PUSH1 0x1 ADD PUSH3 0x18A JUMP JUMPDEST PUSH1 0x0 PUSH1 0x20 DUP1 DUP4 MSTORE DUP4 MLOAD DUP1 DUP3 DUP6 ADD MSTORE PUSH1 0x0 JUMPDEST DUP2 DUP2 LT ISZERO PUSH3 0x1CF JUMPI DUP6 DUP2 ADD DUP4 ADD MLOAD DUP6 DUP3 ADD PUSH1 0x40 ADD MSTORE DUP3 ADD PUSH3 0x1B1 JUMP JUMPDEST DUP2 DUP2 GT ISZERO PUSH3 0x1E2 JUMPI PUSH1 0x0 PUSH1 0x40 DUP4 DUP8 ADD ADD MSTORE JUMPDEST POP PUSH1 0x1F ADD PUSH1 0x1F NOT AND SWAP3 SWAP1 SWAP3 ADD PUSH1 0x40 ADD SWAP4 SWAP3 POP POP POP JUMP JUMPDEST PUSH1 0x1 DUP2 DUP2 SHR SWAP1 DUP3 AND DUP1 PUSH3 0x20D JUMPI PUSH1 0x7F DUP3 AND SWAP2 POP JUMPDEST PUSH1 0x20 DUP3 LT DUP2 EQ ISZERO PUSH3 0x22F JUMPI PUSH4 0x4E487B71 PUSH1 0xE0 SHL PUSH1 0x0 MSTORE PUSH1 0x22 PUSH1 0x4 MSTORE PUSH1 0x24 PUSH1 0x0 REVERT JUMPDEST POP SWAP2 SWAP1 POP JUMP JUMPDEST PUSH2 0xC18 DUP1 PUSH3 0x245 PUSH1 0x0 CODECOPY PUSH1 0x0 RETURN INVALID PUSH1 0x80 PUSH1 0x40 MSTORE CALLVALUE DUP1 ISZERO PUSH2 0x10 JUMPI PUSH1 0x0 DUP1 REVERT JUMPDEST POP PUSH1 0x4 CALLDATASIZE LT PUSH2 0x4C JUMPI PUSH1 0x0 CALLDATALOAD PUSH1 0xE0 SHR DUP1 PUSH4 0x6FDDE03 EQ PUSH2 0x51 JUMPI DUP1 PUSH4 0xB20F24BF EQ PUSH2 0x6F JUMPI DUP1 PUSH4 0xC61B5F4C EQ PUSH2 0x84 JUMPI DUP1 PUSH4 0xE6821BF5 EQ PUSH2 0x9B JUMPI JUMPDEST PUSH1 0x0 DUP1 REVERT JUMPDEST PUSH2 0x59 PUSH2 0xC4 JUMP JUMPDEST PUSH1 0x40 MLOAD PUSH2 0x66 SWAP2 SWAP1 PUSH2 0x8AB JUMP JUMPDEST PUSH1 0x40 MLOAD DUP1 SWAP2 SUB SWAP1 RETURN JUMPDEST PUSH2 0x82 PUSH2 0x7D CALLDATASIZE PUSH1 0x4 PUSH2 0x97D JUMP JUMPDEST PUSH2 0x152 JUMP JUMPDEST STOP JUMPDEST PUSH2 0x8D PUSH1 0x0 SLOAD DUP2 JUMP JUMPDEST PUSH1 0x40 MLOAD SWAP1 DUP2 MSTORE PUSH1 0x20 ADD PUSH2 0x66 JUMP JUMPDEST PUSH2 0xAE PUSH2 0xA9 CALLDATASIZE PUSH1 0x4 PUSH2 0xAA9 JUMP JUMPDEST PUSH2 0x347 JUMP JUMPDEST PUSH1 0x40 MLOAD PUSH2 0x66 SWAP11 SWAP10 SWAP9 SWAP8 SWAP7 SWAP6 SWAP5 SWAP4 SWAP3 SWAP2 SWAP1 PUSH2 0xAC2 JUMP JUMPDEST PUSH1 0x1 DUP1 SLOAD PUSH2 0xD1 SWAP1 PUSH2 0xB7E JUMP JUMPDEST DUP1 PUSH1 0x1F ADD PUSH1 0x20 DUP1 SWAP2 DIV MUL PUSH1 0x20 ADD PUSH1 0x40 MLOAD SWAP1 DUP2 ADD PUSH1 0x40 MSTORE DUP1 SWAP3 SWAP2 SWAP1 DUP2 DUP2 MSTORE PUSH1 0x20 ADD DUP3 DUP1 SLOAD PUSH2 0xFD SWAP1 PUSH2 0xB7E JUMP JUMPDEST DUP1 ISZERO PUSH2 0x14A JUMPI DUP1 PUSH1 0x1F LT PUSH2 0x11F JUMPI PUSH2 0x100 DUP1 DUP4 SLOAD DIV MUL DUP4 MSTORE SWAP2 PUSH1 0x20 ADD SWAP2 PUSH2 0x14A JUMP JUMPDEST DUP3 ADD SWAP2 SWAP1 PUSH1 0x0 MSTORE PUSH1 0x20 PUSH1 0x0 KECCAK256 SWAP1 JUMPDEST DUP2 SLOAD DUP2 MSTORE SWAP1 PUSH1 0x1 ADD SWAP1 PUSH1 0x20 ADD DUP1 DUP4 GT PUSH2 0x12D JUMPI DUP3 SWAP1 SUB PUSH1 0x1F AND DUP3 ADD SWAP2 JUMPDEST POP POP POP POP POP DUP2 JUMP JUMPDEST PUSH1 0x0 DUP9 MLOAD GT PUSH2 0x160 JUMPI PUSH1 0x0 DUP1 REVERT JUMPDEST PUSH1 0x0 DUP8 MLOAD GT PUSH2 0x16E JUMPI PUSH1 0x0 DUP1 REVERT JUMPDEST CALLER PUSH2 0x178 JUMPI PUSH1 0x0 DUP1 REVERT JUMPDEST PUSH1 0x0 DUP1 SLOAD SWAP1 DUP1 PUSH2 0x187 DUP4 PUSH2 0xBB9 JUMP JUMPDEST SWAP1 SWAP2 SSTORE POP POP PUSH1 0x40 DUP1 MLOAD PUSH2 0x140 DUP2 ADD DUP3 MSTORE PUSH1 0x0 DUP1 SLOAD DUP1 DUP4 MSTORE PUSH1 0x20 DUP1 DUP5 ADD DUP14 DUP2 MSTORE DUP5 DUP7 ADD DUP14 SWAP1 MSTORE PUSH1 0x60 DUP6 ADD DUP13 SWAP1 MSTORE PUSH1 0x80 DUP6 ADD DUP12 SWAP1 MSTORE PUSH1 0xA0 DUP6 ADD DUP11 SWAP1 MSTORE PUSH1 0xC0 DUP6 ADD DUP10 SWAP1 MSTORE DUP8 ISZERO ISZERO PUSH1 0xE0 DUP7 ADD MSTORE PUSH2 0x100 DUP6 ADD DUP8 SWAP1 MSTORE CALLER PUSH2 0x120 DUP7 ADD MSTORE SWAP2 DUP4 MSTORE PUSH1 0x2 DUP2 MSTORE SWAP4 SWAP1 SWAP2 KECCAK256 DUP3 MLOAD DUP2 SSTORE SWAP1 MLOAD DUP1 MLOAD SWAP3 SWAP4 SWAP2 SWAP3 PUSH2 0x206 SWAP3 PUSH1 0x1 DUP6 ADD SWAP3 ADD SWAP1 PUSH2 0x7C5 JUMP JUMPDEST POP PUSH1 0x40 DUP3 ADD MLOAD DUP1 MLOAD PUSH2 0x222 SWAP2 PUSH1 0x2 DUP5 ADD SWAP2 PUSH1 0x20 SWAP1 SWAP2 ADD SWAP1 PUSH2 0x7C5 JUMP JUMPDEST POP PUSH1 0x60 DUP3 ADD MLOAD DUP1 MLOAD PUSH2 0x23E SWAP2 PUSH1 0x3 DUP5 ADD SWAP2 PUSH1 0x20 SWAP1 SWAP2 ADD SWAP1 PUSH2 0x7C5 JUMP JUMPDEST POP PUSH1 0x80 DUP3 ADD MLOAD DUP1 MLOAD PUSH2 0x25A SWAP2 PUSH1 0x4 DUP5 ADD SWAP2 PUSH1 0x20 SWAP1 SWAP2 ADD SWAP1 PUSH2 0x7C5 JUMP JUMPDEST POP PUSH1 0xA0 DUP3 ADD MLOAD DUP1 MLOAD PUSH2 0x276 SWAP2 PUSH1 0x5 DUP5 ADD SWAP2 PUSH1 0x20 SWAP1 SWAP2 ADD SWAP1 PUSH2 0x7C5 JUMP JUMPDEST POP PUSH1 0xC0 DUP3 ADD MLOAD DUP1 MLOAD PUSH2 0x292 SWAP2 PUSH1 0x6 DUP5 ADD SWAP2 PUSH1 0x20 SWAP1 SWAP2 ADD SWAP1 PUSH2 0x7C5 JUMP JUMPDEST POP PUSH1 0xE0 DUP3 ADD MLOAD PUSH1 0x7 DUP3 ADD DUP1 SLOAD PUSH1 0xFF NOT AND SWAP2 ISZERO ISZERO SWAP2 SWAP1 SWAP2 OR SWAP1 SSTORE PUSH2 0x100 DUP3 ADD MLOAD DUP1 MLOAD PUSH2 0x2C7 SWAP2 PUSH1 0x8 DUP5 ADD SWAP2 PUSH1 0x20 SWAP1 SWAP2 ADD SWAP1 PUSH2 0x7C5 JUMP JUMPDEST POP PUSH2 0x120 SWAP2 SWAP1 SWAP2 ADD MLOAD PUSH1 0x9 SWAP1 SWAP2 ADD DUP1 SLOAD PUSH1 0x1 PUSH1 0x1 PUSH1 0xA0 SHL SUB NOT AND PUSH1 0x1 PUSH1 0x1 PUSH1 0xA0 SHL SUB SWAP1 SWAP3 AND SWAP2 SWAP1 SWAP2 OR SWAP1 SSTORE PUSH1 0x0 SLOAD PUSH1 0x40 MLOAD PUSH32 0x59B01D7253E58066E08807923C0472B8BCA64305F2CB0443A998C4C6F7CA8A01 SWAP2 PUSH2 0x335 SWAP2 DUP12 SWAP1 DUP12 SWAP1 DUP12 SWAP1 DUP12 SWAP1 DUP12 SWAP1 DUP12 SWAP1 DUP12 SWAP1 DUP12 SWAP1 CALLER SWAP1 PUSH2 0xAC2 JUMP JUMPDEST PUSH1 0x40 MLOAD DUP1 SWAP2 SUB SWAP1 LOG1 POP POP POP POP POP POP POP POP JUMP JUMPDEST PUSH1 0x2 PUSH1 0x20 MSTORE PUSH1 0x0 SWAP1 DUP2 MSTORE PUSH1 0x40 SWAP1 KECCAK256 DUP1 SLOAD PUSH1 0x1 DUP3 ADD DUP1 SLOAD SWAP2 SWAP3 SWAP2 PUSH2 0x369 SWAP1 PUSH2 0xB7E JUMP JUMPDEST DUP1 PUSH1 0x1F ADD PUSH1 0x20 DUP1 SWAP2 DIV MUL PUSH1 0x20 ADD PUSH1 0x40 MLOAD SWAP1 DUP2 ADD PUSH1 0x40 MSTORE DUP1 SWAP3 SWAP2 SWAP1 DUP2 DUP2 MSTORE PUSH1 0x20 ADD DUP3 DUP1 SLOAD PUSH2 0x395 SWAP1 PUSH2 0xB7E JUMP JUMPDEST DUP1 ISZERO PUSH2 0x3E2 JUMPI DUP1 PUSH1 0x1F LT PUSH2 0x3B7 JUMPI PUSH2 0x100 DUP1 DUP4 SLOAD DIV MUL DUP4 MSTORE SWAP2 PUSH1 0x20 ADD SWAP2 PUSH2 0x3E2 JUMP JUMPDEST DUP3 ADD SWAP2 SWAP1 PUSH1 0x0 MSTORE PUSH1 0x20 PUSH1 0x0 KECCAK256 SWAP1 JUMPDEST DUP2 SLOAD DUP2 MSTORE SWAP1 PUSH1 0x1 ADD SWAP1 PUSH1 0x20 ADD DUP1 DUP4 GT PUSH2 0x3C5 JUMPI DUP3 SWAP1 SUB PUSH1 0x1F AND DUP3 ADD SWAP2 JUMPDEST POP POP POP POP POP SWAP1 DUP1 PUSH1 0x2 ADD DUP1 SLOAD PUSH2 0x3F7 SWAP1 PUSH2 0xB7E JUMP JUMPDEST DUP1 PUSH1 0x1F ADD PUSH1 0x20 DUP1 SWAP2 DIV MUL PUSH1 0x20 ADD PUSH1 0x40 MLOAD SWAP1 DUP2 ADD PUSH1 0x40 MSTORE DUP1 SWAP3 SWAP2 SWAP1 DUP2 DUP2 MSTORE PUSH1 0x20 ADD DUP3 DUP1 SLOAD PUSH2 0x423 SWAP1 PUSH2 0xB7E JUMP JUMPDEST DUP1 ISZERO PUSH2 0x470 JUMPI DUP1 PUSH1 0x1F LT PUSH2 0x445 JUMPI PUSH2 0x100 DUP1 DUP4 SLOAD DIV MUL DUP4 MSTORE SWAP2 PUSH1 0x20 ADD SWAP2 PUSH2 0x470 JUMP JUMPDEST DUP3 ADD SWAP2 SWAP1 PUSH1 0x0 MSTORE PUSH1 0x20 PUSH1 0x0 KECCAK256 SWAP1 JUMPDEST DUP2 SLOAD DUP2 MSTORE SWAP1 PUSH1 0x1 ADD SWAP1 PUSH1 0x20 ADD DUP1 DUP4 GT PUSH2 0x453 JUMPI DUP3 SWAP1 SUB PUSH1 0x1F AND DUP3 ADD SWAP2 JUMPDEST POP POP POP POP POP SWAP1 DUP1 PUSH1 0x3 ADD DUP1 SLOAD PUSH2 0x485 SWAP1 PUSH2 0xB7E JUMP JUMPDEST DUP1 PUSH1 0x1F ADD PUSH1 0x20 DUP1 SWAP2 DIV MUL PUSH1 0x20 ADD PUSH1 0x40 MLOAD SWAP1 DUP2 ADD PUSH1 0x40 MSTORE DUP1 SWAP3 SWAP2 SWAP1 DUP2 DUP2 MSTORE PUSH1 0x20 ADD DUP3 DUP1 SLOAD PUSH2 0x4B1 SWAP1 PUSH2 0xB7E JUMP JUMPDEST DUP1 ISZERO PUSH2 0x4FE JUMPI DUP1 PUSH1 0x1F LT PUSH2 0x4D3 JUMPI PUSH2 0x100 DUP1 DUP4 SLOAD DIV MUL DUP4 MSTORE SWAP2 PUSH1 0x20 ADD SWAP2 PUSH2 0x4FE JUMP JUMPDEST DUP3 ADD SWAP2 SWAP1 PUSH1 0x0 MSTORE PUSH1 0x20 PUSH1 0x0 KECCAK256 SWAP1 JUMPDEST DUP2 SLOAD DUP2 MSTORE SWAP1 PUSH1 0x1 ADD SWAP1 PUSH1 0x20 ADD DUP1 DUP4 GT PUSH2 0x4E1 JUMPI DUP3 SWAP1 SUB PUSH1 0x1F AND DUP3 ADD SWAP2 JUMPDEST POP POP POP POP POP SWAP1 DUP1 PUSH1 0x4 ADD DUP1 SLOAD PUSH2 0x513 SWAP1 PUSH2 0xB7E JUMP JUMPDEST DUP1 PUSH1 0x1F ADD PUSH1 0x20 DUP1 SWAP2 DIV MUL PUSH1 0x20 ADD PUSH1 0x40 MLOAD SWAP1 DUP2 ADD PUSH1 0x40 MSTORE DUP1 SWAP3 SWAP2 SWAP1 DUP2 DUP2 MSTORE PUSH1 0x20 ADD DUP3 DUP1 SLOAD PUSH2 0x53F SWAP1 PUSH2 0xB7E JUMP JUMPDEST DUP1 ISZERO PUSH2 0x58C JUMPI DUP1 PUSH1 0x1F LT PUSH2 0x561 JUMPI PUSH2 0x100 DUP1 DUP4 SLOAD DIV MUL DUP4 MSTORE SWAP2 PUSH1 0x20 ADD SWAP2 PUSH2 0x58C JUMP JUMPDEST DUP3 ADD SWAP2 SWAP1 PUSH1 0x0 MSTORE PUSH1 0x20 PUSH1 0x0 KECCAK256 SWAP1 JUMPDEST DUP2 SLOAD DUP2 MSTORE SWAP1 PUSH1 0x1 ADD SWAP1 PUSH1 0x20 ADD DUP1 DUP4 GT PUSH2 0x56F JUMPI DUP3 SWAP1 SUB PUSH1 0x1F AND DUP3 ADD SWAP2 JUMPDEST POP POP POP POP POP SWAP1 DUP1 PUSH1 0x5 ADD DUP1 SLOAD PUSH2 0x5A1 SWAP1 PUSH2 0xB7E JUMP JUMPDEST DUP1 PUSH1 0x1F ADD PUSH1 0x20 DUP1 SWAP2 DIV MUL PUSH1 0x20 ADD PUSH1 0x40 MLOAD SWAP1 DUP2 ADD PUSH1 0x40 MSTORE DUP1 SWAP3 SWAP2 SWAP1 DUP2 DUP2 MSTORE PUSH1 0x20 ADD DUP3 DUP1 SLOAD PUSH2 0x5CD SWAP1 PUSH2 0xB7E JUMP JUMPDEST DUP1 ISZERO PUSH2 0x61A JUMPI DUP1 PUSH1 0x1F LT PUSH2 0x5EF JUMPI PUSH2 0x100 DUP1 DUP4 SLOAD DIV MUL DUP4 MSTORE SWAP2 PUSH1 0x20 ADD SWAP2 PUSH2 0x61A JUMP JUMPDEST DUP3 ADD SWAP2 SWAP1 PUSH1 0x0 MSTORE PUSH1 0x20 PUSH1 0x0 KECCAK256 SWAP1 JUMPDEST DUP2 SLOAD DUP2 MSTORE SWAP1 PUSH1 0x1 ADD SWAP1 PUSH1 0x20 ADD DUP1 DUP4 GT PUSH2 0x5FD JUMPI DUP3 SWAP1 SUB PUSH1 0x1F AND DUP3 ADD SWAP2 JUMPDEST POP POP POP POP POP SWAP1 DUP1 PUSH1 0x6 ADD DUP1 SLOAD PUSH2 0x62F SWAP1 PUSH2 0xB7E JUMP JUMPDEST DUP1 PUSH1 0x1F ADD PUSH1 0x20 DUP1 SWAP2 DIV MUL PUSH1 0x20 ADD PUSH1 0x40 MLOAD SWAP1 DUP2 ADD PUSH1 0x40 MSTORE DUP1 SWAP3 SWAP2 SWAP1 DUP2 DUP2 MSTORE PUSH1 0x20 ADD DUP3 DUP1 SLOAD PUSH2 0x65B SWAP1 PUSH2 0xB7E JUMP JUMPDEST DUP1 ISZERO PUSH2 0x6A8 JUMPI DUP1 PUSH1 0x1F LT PUSH2 0x67D JUMPI PUSH2 0x100 DUP1 DUP4 SLOAD DIV MUL DUP4 MSTORE SWAP2 PUSH1 0x20 ADD SWAP2 PUSH2 0x6A8 JUMP JUMPDEST DUP3 ADD SWAP2 SWAP1 PUSH1 0x0 MSTORE PUSH1 0x20 PUSH1 0x0 KECCAK256 SWAP1 JUMPDEST DUP2 SLOAD DUP2 MSTORE SWAP1 PUSH1 0x1 ADD SWAP1 PUSH1 0x20 ADD DUP1 DUP4 GT PUSH2 0x68B JUMPI DUP3 SWAP1 SUB PUSH1 0x1F AND DUP3 ADD SWAP2 JUMPDEST POP POP POP PUSH1 0x7 DUP5 ADD SLOAD PUSH1 0x8 DUP6 ADD DUP1 SLOAD SWAP5 SWAP6 PUSH1 0xFF SWAP1 SWAP3 AND SWAP5 SWAP2 SWAP4 POP SWAP2 POP PUSH2 0x6CC SWAP1 PUSH2 0xB7E JUMP JUMPDEST DUP1 PUSH1 0x1F ADD PUSH1 0x20 DUP1 SWAP2 DIV MUL PUSH1 0x20 ADD PUSH1 0x40 MLOAD SWAP1 DUP2 ADD PUSH1 0x40 MSTORE DUP1 SWAP3 SWAP2 SWAP1 DUP2 DUP2 MSTORE PUSH1 0x20 ADD DUP3 DUP1 SLOAD PUSH2 0x6F8 SWAP1 PUSH2 0xB7E JUMP JUMPDEST DUP1 ISZERO PUSH2 0x745 JUMPI DUP1 PUSH1 0x1F LT PUSH2 0x71A JUMPI PUSH2 0x100 DUP1 DUP4 SLOAD DIV MUL DUP4 MSTORE SWAP2 PUSH1 0x20 ADD SWAP2 PUSH2 0x745 JUMP JUMPDEST DUP3 ADD SWAP2 SWAP1 PUSH1 0x0 MSTORE PUSH1 0x20 PUSH1 0x0 KECCAK256 SWAP1 JUMPDEST DUP2 SLOAD DUP2 MSTORE SWAP1 PUSH1 0x1 ADD SWAP1 PUSH1 0x20 ADD DUP1 DUP4 GT PUSH2 0x728 JUMPI DUP3 SWAP1 SUB PUSH1 0x1F AND DUP3 ADD SWAP2 JUMPDEST POP POP POP PUSH1 0x9 SWAP1 SWAP4 ADD SLOAD SWAP2 SWAP3 POP POP PUSH1 0x1 PUSH1 0x1 PUSH1 0xA0 SHL SUB AND DUP11 JUMP JUMPDEST PUSH2 0x7A1 DUP2 PUSH1 0x40 MLOAD PUSH1 0x24 ADD PUSH2 0x772 SWAP2 SWAP1 PUSH2 0x8AB JUMP JUMPDEST PUSH1 0x40 DUP1 MLOAD PUSH1 0x1F NOT DUP2 DUP5 SUB ADD DUP2 MSTORE SWAP2 SWAP1 MSTORE PUSH1 0x20 DUP2 ADD DUP1 MLOAD PUSH1 0x1 PUSH1 0x1 PUSH1 0xE0 SHL SUB AND PUSH4 0x104C13EB PUSH1 0xE2 SHL OR SWAP1 MSTORE PUSH2 0x7A4 JUMP JUMPDEST POP JUMP JUMPDEST DUP1 MLOAD PUSH11 0x636F6E736F6C652E6C6F67 PUSH1 0x20 DUP4 ADD PUSH1 0x0 DUP1 DUP5 DUP4 DUP6 GAS STATICCALL POP POP POP POP POP JUMP JUMPDEST DUP3 DUP1 SLOAD PUSH2 0x7D1 SWAP1 PUSH2 0xB7E JUMP JUMPDEST SWAP1 PUSH1 0x0 MSTORE PUSH1 0x20 PUSH1 0x0 KECCAK256 SWAP1 PUSH1 0x1F ADD PUSH1 0x20 SWAP1 DIV DUP2 ADD SWAP3 DUP3 PUSH2 0x7F3 JUMPI PUSH1 0x0 DUP6 SSTORE PUSH2 0x839 JUMP JUMPDEST DUP3 PUSH1 0x1F LT PUSH2 0x80C JUMPI DUP1 MLOAD PUSH1 0xFF NOT AND DUP4 DUP1 ADD OR DUP6 SSTORE PUSH2 0x839 JUMP JUMPDEST DUP3 DUP1 ADD PUSH1 0x1 ADD DUP6 SSTORE DUP3 ISZERO PUSH2 0x839 JUMPI SWAP2 DUP3 ADD JUMPDEST DUP3 DUP2 GT ISZERO PUSH2 0x839 JUMPI DUP3 MLOAD DUP3 SSTORE SWAP2 PUSH1 0x20 ADD SWAP2 SWAP1 PUSH1 0x1 ADD SWAP1 PUSH2 0x81E JUMP JUMPDEST POP PUSH2 0x845 SWAP3 SWAP2 POP PUSH2 0x849 JUMP JUMPDEST POP SWAP1 JUMP JUMPDEST JUMPDEST DUP1 DUP3 GT ISZERO PUSH2 0x845 JUMPI PUSH1 0x0 DUP2 SSTORE PUSH1 0x1 ADD PUSH2 0x84A JUMP JUMPDEST PUSH1 0x0 DUP2 MLOAD DUP1 DUP5 MSTORE PUSH1 0x0 JUMPDEST DUP2 DUP2 LT ISZERO PUSH2 0x884 JUMPI PUSH1 0x20 DUP2 DUP6 ADD DUP2 ADD MLOAD DUP7 DUP4 ADD DUP3 ADD MSTORE ADD PUSH2 0x868 JUMP JUMPDEST DUP2 DUP2 GT ISZERO PUSH2 0x896 JUMPI PUSH1 0x0 PUSH1 0x20 DUP4 DUP8 ADD ADD MSTORE JUMPDEST POP PUSH1 0x1F ADD PUSH1 0x1F NOT AND SWAP3 SWAP1 SWAP3 ADD PUSH1 0x20 ADD SWAP3 SWAP2 POP POP JUMP JUMPDEST PUSH1 0x20 DUP2 MSTORE PUSH1 0x0 PUSH2 0x8BE PUSH1 0x20 DUP4 ADD DUP5 PUSH2 0x85E JUMP JUMPDEST SWAP4 SWAP3 POP POP POP JUMP JUMPDEST PUSH4 0x4E487B71 PUSH1 0xE0 SHL PUSH1 0x0 MSTORE PUSH1 0x41 PUSH1 0x4 MSTORE PUSH1 0x24 PUSH1 0x0 REVERT JUMPDEST PUSH1 0x0 DUP3 PUSH1 0x1F DUP4 ADD SLT PUSH2 0x8EC JUMPI PUSH1 0x0 DUP1 REVERT JUMPDEST DUP2 CALLDATALOAD PUSH8 0xFFFFFFFFFFFFFFFF DUP1 DUP3 GT ISZERO PUSH2 0x907 JUMPI PUSH2 0x907 PUSH2 0x8C5 JUMP JUMPDEST PUSH1 0x40 MLOAD PUSH1 0x1F DUP4 ADD PUSH1 0x1F NOT SWAP1 DUP2 AND PUSH1 0x3F ADD AND DUP2 ADD SWAP1 DUP3 DUP3 GT DUP2 DUP4 LT OR ISZERO PUSH2 0x92F JUMPI PUSH2 0x92F PUSH2 0x8C5 JUMP JUMPDEST DUP2 PUSH1 0x40 MSTORE DUP4 DUP2 MSTORE DUP7 PUSH1 0x20 DUP6 DUP9 ADD ADD GT ISZERO PUSH2 0x948 JUMPI PUSH1 0x0 DUP1 REVERT JUMPDEST DUP4 PUSH1 0x20 DUP8 ADD PUSH1 0x20 DUP4 ADD CALLDATACOPY PUSH1 0x0 PUSH1 0x20 DUP6 DUP4 ADD ADD MSTORE DUP1 SWAP5 POP POP POP POP POP SWAP3 SWAP2 POP POP JUMP JUMPDEST DUP1 CALLDATALOAD DUP1 ISZERO ISZERO DUP2 EQ PUSH2 0x978 JUMPI PUSH1 0x0 DUP1 REVERT JUMPDEST SWAP2 SWAP1 POP JUMP JUMPDEST PUSH1 0x0 DUP1 PUSH1 0x0 DUP1 PUSH1 0x0 DUP1 PUSH1 0x0 DUP1 PUSH2 0x100 DUP10 DUP12 SUB SLT ISZERO PUSH2 0x99A JUMPI PUSH1 0x0 DUP1 REVERT JUMPDEST DUP9 CALLDATALOAD PUSH8 0xFFFFFFFFFFFFFFFF DUP1 DUP3 GT ISZERO PUSH2 0x9B2 JUMPI PUSH1 0x0 DUP1 REVERT JUMPDEST PUSH2 0x9BE DUP13 DUP4 DUP14 ADD PUSH2 0x8DB JUMP JUMPDEST SWAP10 POP PUSH1 0x20 DUP12 ADD CALLDATALOAD SWAP2 POP DUP1 DUP3 GT ISZERO PUSH2 0x9D4 JUMPI PUSH1 0x0 DUP1 REVERT JUMPDEST PUSH2 0x9E0 DUP13 DUP4 DUP14 ADD PUSH2 0x8DB JUMP JUMPDEST SWAP9 POP PUSH1 0x40 DUP12 ADD CALLDATALOAD SWAP2 POP DUP1 DUP3 GT ISZERO PUSH2 0x9F6 JUMPI PUSH1 0x0 DUP1 REVERT JUMPDEST PUSH2 0xA02 DUP13 DUP4 DUP14 ADD PUSH2 0x8DB JUMP JUMPDEST SWAP8 POP PUSH1 0x60 DUP12 ADD CALLDATALOAD SWAP2 POP DUP1 DUP3 GT ISZERO PUSH2 0xA18 JUMPI PUSH1 0x0 DUP1 REVERT JUMPDEST PUSH2 0xA24 DUP13 DUP4 DUP14 ADD PUSH2 0x8DB JUMP JUMPDEST SWAP7 POP PUSH1 0x80 DUP12 ADD CALLDATALOAD SWAP2 POP DUP1 DUP3 GT ISZERO PUSH2 0xA3A JUMPI PUSH1 0x0 DUP1 REVERT JUMPDEST PUSH2 0xA46 DUP13 DUP4 DUP14 ADD PUSH2 0x8DB JUMP JUMPDEST SWAP6 POP PUSH1 0xA0 DUP12 ADD CALLDATALOAD SWAP2 POP DUP1 DUP3 GT ISZERO PUSH2 0xA5C JUMPI PUSH1 0x0 DUP1 REVERT JUMPDEST PUSH2 0xA68 DUP13 DUP4 DUP14 ADD PUSH2 0x8DB JUMP JUMPDEST SWAP5 POP PUSH2 0xA76 PUSH1 0xC0 DUP13 ADD PUSH2 0x968 JUMP JUMPDEST SWAP4 POP PUSH1 0xE0 DUP12 ADD CALLDATALOAD SWAP2 POP DUP1 DUP3 GT ISZERO PUSH2 0xA8C JUMPI PUSH1 0x0 DUP1 REVERT JUMPDEST POP PUSH2 0xA99 DUP12 DUP3 DUP13 ADD PUSH2 0x8DB JUMP JUMPDEST SWAP2 POP POP SWAP3 SWAP6 SWAP9 POP SWAP3 SWAP6 SWAP9 SWAP1 SWAP4 SWAP7 POP JUMP JUMPDEST PUSH1 0x0 PUSH1 0x20 DUP3 DUP5 SUB SLT ISZERO PUSH2 0xABB JUMPI PUSH1 0x0 DUP1 REVERT JUMPDEST POP CALLDATALOAD SWAP2 SWAP1 POP JUMP JUMPDEST PUSH1 0x0 PUSH2 0x140 DUP13 DUP4 MSTORE DUP1 PUSH1 0x20 DUP5 ADD MSTORE PUSH2 0xADC DUP2 DUP5 ADD DUP14 PUSH2 0x85E JUMP JUMPDEST SWAP1 POP DUP3 DUP2 SUB PUSH1 0x40 DUP5 ADD MSTORE PUSH2 0xAF0 DUP2 DUP13 PUSH2 0x85E JUMP JUMPDEST SWAP1 POP DUP3 DUP2 SUB PUSH1 0x60 DUP5 ADD MSTORE PUSH2 0xB04 DUP2 DUP12 PUSH2 0x85E JUMP JUMPDEST SWAP1 POP DUP3 DUP2 SUB PUSH1 0x80 DUP5 ADD MSTORE PUSH2 0xB18 DUP2 DUP11 PUSH2 0x85E JUMP JUMPDEST SWAP1 POP DUP3 DUP2 SUB PUSH1 0xA0 DUP5 ADD MSTORE PUSH2 0xB2C DUP2 DUP10 PUSH2 0x85E JUMP JUMPDEST SWAP1 POP DUP3 DUP2 SUB PUSH1 0xC0 DUP5 ADD MSTORE PUSH2 0xB40 DUP2 DUP9 PUSH2 0x85E JUMP JUMPDEST SWAP1 POP DUP6 ISZERO ISZERO PUSH1 0xE0 DUP5 ADD MSTORE DUP3 DUP2 SUB PUSH2 0x100 DUP5 ADD MSTORE PUSH2 0xB5D DUP2 DUP7 PUSH2 0x85E JUMP JUMPDEST SWAP2 POP POP PUSH1 0x1 DUP1 PUSH1 0xA0 SHL SUB DUP4 AND PUSH2 0x120 DUP4 ADD MSTORE SWAP12 SWAP11 POP POP POP POP POP POP POP POP POP POP POP JUMP JUMPDEST PUSH1 0x1 DUP2 DUP2 SHR SWAP1 DUP3 AND DUP1 PUSH2 0xB92 JUMPI PUSH1 0x7F DUP3 AND SWAP2 POP JUMPDEST PUSH1 0x20 DUP3 LT DUP2 EQ ISZERO PUSH2 0xBB3 JUMPI PUSH4 0x4E487B71 PUSH1 0xE0 SHL PUSH1 0x0 MSTORE PUSH1 0x22 PUSH1 0x4 MSTORE PUSH1 0x24 PUSH1 0x0 REVERT JUMPDEST POP SWAP2 SWAP1 POP JUMP JUMPDEST PUSH1 0x0 PUSH1 0x0 NOT DUP3 EQ ISZERO PUSH2 0xBDB JUMPI PUSH4 0x4E487B71 PUSH1 0xE0 SHL PUSH1 0x0 MSTORE PUSH1 0x11 PUSH1 0x4 MSTORE PUSH1 0x24 PUSH1 0x0 REVERT JUMPDEST POP PUSH1 0x1 ADD SWAP1 JUMP INVALID LOG2 PUSH5 0x6970667358 0x22 SLT KECCAK256 JUMP 0xCE SLOAD 0xEC 0xDD SIGNEXTEND EXTCODESIZE PUSH31 0x201B6D999E4D2CF5A913CFBD5D59B79806328C5800AEA86064736F6C634300 ADDMOD MULMOD STOP CALLER "},"methodIdentifiers":{"name()":"06fdde03","uploadVideo(string,string,string,string,string,string,bool,string)":"b20f24bf","videoCount()":"c61b5f4c","videos(uint256)":"e6821bf5"}}}}}