{
  "_format": "hh-sol-artifact-1",
  "contractName": "knft",
  "sourceName": "contracts/knft.sol",
  "abi": [
    {
      "inputs": [],
      "stateMutability": "nonpayable",
      "type": "constructor"
    },
    {
      "anonymous": false,
      "inputs": [
        {
          "indexed": true,
          "internalType": "address",
          "name": "owner",
          "type": "address"
        },
        {
          "indexed": true,
          "internalType": "address",
          "name": "approved",
          "type": "address"
        },
        {
          "indexed": true,
          "internalType": "uint256",
          "name": "tokenId",
          "type": "uint256"
        }
      ],
      "name": "Approval",
      "type": "event"
    },
    {
      "anonymous": false,
      "inputs": [
        {
          "indexed": true,
          "internalType": "address",
          "name": "owner",
          "type": "address"
        },
        {
          "indexed": true,
          "internalType": "address",
          "name": "operator",
          "type": "address"
        },
        {
          "indexed": false,
          "internalType": "bool",
          "name": "approved",
          "type": "bool"
        }
      ],
      "name": "ApprovalForAll",
      "type": "event"
    },
    {
      "anonymous": false,
      "inputs": [
        {
          "indexed": true,
          "internalType": "address",
          "name": "from",
          "type": "address"
        },
        {
          "indexed": true,
          "internalType": "address",
          "name": "to",
          "type": "address"
        },
        {
          "indexed": true,
          "internalType": "uint256",
          "name": "tokenId",
          "type": "uint256"
        }
      ],
      "name": "Transfer",
      "type": "event"
    },
    {
      "inputs": [
        {
          "internalType": "address",
          "name": "to",
          "type": "address"
        },
        {
          "internalType": "uint256",
          "name": "tokenId",
          "type": "uint256"
        }
      ],
      "name": "approve",
      "outputs": [],
      "stateMutability": "nonpayable",
      "type": "function"
    },
    {
      "inputs": [
        {
          "internalType": "address",
          "name": "owner",
          "type": "address"
        }
      ],
      "name": "balanceOf",
      "outputs": [
        {
          "internalType": "uint256",
          "name": "",
          "type": "uint256"
        }
      ],
      "stateMutability": "view",
      "type": "function"
    },
    {
      "inputs": [],
      "name": "collectionName",
      "outputs": [
        {
          "internalType": "string",
          "name": "",
          "type": "string"
        }
      ],
      "stateMutability": "view",
      "type": "function"
    },
    {
      "inputs": [],
      "name": "collectionSymbol",
      "outputs": [
        {
          "internalType": "string",
          "name": "",
          "type": "string"
        }
      ],
      "stateMutability": "view",
      "type": "function"
    },
    {
      "inputs": [],
      "name": "createknft",
      "outputs": [
        {
          "internalType": "uint256",
          "name": "",
          "type": "uint256"
        }
      ],
      "stateMutability": "nonpayable",
      "type": "function"
    },
    {
      "inputs": [
        {
          "internalType": "uint256",
          "name": "tokenId",
          "type": "uint256"
        }
      ],
      "name": "getApproved",
      "outputs": [
        {
          "internalType": "address",
          "name": "",
          "type": "address"
        }
      ],
      "stateMutability": "view",
      "type": "function"
    },
    {
      "inputs": [
        {
          "internalType": "address",
          "name": "owner",
          "type": "address"
        },
        {
          "internalType": "address",
          "name": "operator",
          "type": "address"
        }
      ],
      "name": "isApprovedForAll",
      "outputs": [
        {
          "internalType": "bool",
          "name": "",
          "type": "bool"
        }
      ],
      "stateMutability": "view",
      "type": "function"
    },
    {
      "inputs": [],
      "name": "name",
      "outputs": [
        {
          "internalType": "string",
          "name": "",
          "type": "string"
        }
      ],
      "stateMutability": "view",
      "type": "function"
    },
    {
      "inputs": [
        {
          "internalType": "uint256",
          "name": "tokenId",
          "type": "uint256"
        }
      ],
      "name": "ownerOf",
      "outputs": [
        {
          "internalType": "address",
          "name": "",
          "type": "address"
        }
      ],
      "stateMutability": "view",
      "type": "function"
    },
    {
      "inputs": [
        {
          "internalType": "address",
          "name": "from",
          "type": "address"
        },
        {
          "internalType": "address",
          "name": "to",
          "type": "address"
        },
        {
          "internalType": "uint256",
          "name": "tokenId",
          "type": "uint256"
        }
      ],
      "name": "safeTransferFrom",
      "outputs": [],
      "stateMutability": "nonpayable",
      "type": "function"
    },
    {
      "inputs": [
        {
          "internalType": "address",
          "name": "from",
          "type": "address"
        },
        {
          "internalType": "address",
          "name": "to",
          "type": "address"
        },
        {
          "internalType": "uint256",
          "name": "tokenId",
          "type": "uint256"
        },
        {
          "internalType": "bytes",
          "name": "_data",
          "type": "bytes"
        }
      ],
      "name": "safeTransferFrom",
      "outputs": [],
      "stateMutability": "nonpayable",
      "type": "function"
    },
    {
      "inputs": [
        {
          "internalType": "address",
          "name": "operator",
          "type": "address"
        },
        {
          "internalType": "bool",
          "name": "approved",
          "type": "bool"
        }
      ],
      "name": "setApprovalForAll",
      "outputs": [],
      "stateMutability": "nonpayable",
      "type": "function"
    },
    {
      "inputs": [
        {
          "internalType": "bytes4",
          "name": "interfaceId",
          "type": "bytes4"
        }
      ],
      "name": "supportsInterface",
      "outputs": [
        {
          "internalType": "bool",
          "name": "",
          "type": "bool"
        }
      ],
      "stateMutability": "view",
      "type": "function"
    },
    {
      "inputs": [],
      "name": "symbol",
      "outputs": [
        {
          "internalType": "string",
          "name": "",
          "type": "string"
        }
      ],
      "stateMutability": "view",
      "type": "function"
    },
    {
      "inputs": [
        {
          "internalType": "uint256",
          "name": "tokenId",
          "type": "uint256"
        }
      ],
      "name": "tokenURI",
      "outputs": [
        {
          "internalType": "string",
          "name": "",
          "type": "string"
        }
      ],
      "stateMutability": "view",
      "type": "function"
    },
    {
      "inputs": [
        {
          "internalType": "address",
          "name": "from",
          "type": "address"
        },
        {
          "internalType": "address",
          "name": "to",
          "type": "address"
        },
        {
          "internalType": "uint256",
          "name": "tokenId",
          "type": "uint256"
        }
      ],
      "name": "transferFrom",
      "outputs": [],
      "stateMutability": "nonpayable",
      "type": "function"
    }
  ],
  "bytecode": "0x60806040523480156200001157600080fd5b506040518060400160405280600481526020017f6b6e6674000000000000000000000000000000000000000000000000000000008152506040518060400160405280600481526020017f6b6e66740000000000000000000000000000000000000000000000000000000081525081600090816200008f91906200049a565b508060019081620000a191906200049a565b505050620000b4620000ec60201b60201c565b60089081620000c491906200049a565b50620000d56200018660201b60201c565b60099081620000e591906200049a565b5062000581565b606060008054620000fd9062000289565b80601f01602080910402602001604051908101604052809291908181526020018280546200012b9062000289565b80156200017c5780601f1062000150576101008083540402835291602001916200017c565b820191906000526020600020905b8154815290600101906020018083116200015e57829003601f168201915b5050505050905090565b606060018054620001979062000289565b80601f0160208091040260200160405190810160405280929190818152602001828054620001c59062000289565b8015620002165780601f10620001ea5761010080835404028352916020019162000216565b820191906000526020600020905b815481529060010190602001808311620001f857829003601f168201915b5050505050905090565b600081519050919050565b7f4e487b7100000000000000000000000000000000000000000000000000000000600052604160045260246000fd5b7f4e487b7100000000000000000000000000000000000000000000000000000000600052602260045260246000fd5b60006002820490506001821680620002a257607f821691505b602082108103620002b857620002b76200025a565b5b50919050565b60008190508160005260206000209050919050565b60006020601f8301049050919050565b600082821b905092915050565b600060088302620003227fffffffffffffffffffffffffffffffffffffffffffffffffffffffffffffffff82620002e3565b6200032e8683620002e3565b95508019841693508086168417925050509392505050565b6000819050919050565b6000819050919050565b60006200037b620003756200036f8462000346565b62000350565b62000346565b9050919050565b6000819050919050565b62000397836200035a565b620003af620003a68262000382565b848454620002f0565b825550505050565b600090565b620003c6620003b7565b620003d38184846200038c565b505050565b5b81811015620003fb57620003ef600082620003bc565b600181019050620003d9565b5050565b601f8211156200044a576200041481620002be565b6200041f84620002d3565b810160208510156200042f578190505b620004476200043e85620002d3565b830182620003d8565b50505b505050565b600082821c905092915050565b60006200046f600019846008026200044f565b1980831691505092915050565b60006200048a83836200045c565b9150826002028217905092915050565b620004a58262000220565b67ffffffffffffffff811115620004c157620004c06200022b565b5b620004cd825462000289565b620004da828285620003ff565b600060209050601f831160018114620005125760008415620004fd578287015190505b6200050985826200047c565b86555062000579565b601f1984166200052286620002be565b60005b828110156200054c5784890151825560018201915060208501945060208101905062000525565b868310156200056c578489015162000568601f8916826200045c565b8355505b6001600288020188555050505b505050505050565b61346780620005916000396000f3fe608060405234801561001057600080fd5b50600436106101005760003560e01c80636352211e11610097578063b88d4fde11610066578063b88d4fde146102ad578063c87b56dd146102c9578063e5326ab1146102f9578063e985e9c51461031757610100565b80636352211e1461021357806370a082311461024357806395d89b4114610273578063a22cb4651461029157610100565b806320fcdcf0116100d357806320fcdcf01461019f57806323b872dd146101bd5780632f39352a146101d957806342842e0e146101f757610100565b806301ffc9a71461010557806306fdde0314610135578063081812fc14610153578063095ea7b314610183575b600080fd5b61011f600480360381019061011a9190611c5f565b610347565b60405161012c9190611ca7565b60405180910390f35b61013d610429565b60405161014a9190611d52565b60405180910390f35b61016d60048036038101906101689190611daa565b6104bb565b60405161017a9190611e18565b60405180910390f35b61019d60048036038101906101989190611e5f565b610540565b005b6101a7610657565b6040516101b49190611eae565b60405180910390f35b6101d760048036038101906101d29190611ec9565b61073f565b005b6101e161079f565b6040516101ee9190611d52565b60405180910390f35b610211600480360381019061020c9190611ec9565b61082d565b005b61022d60048036038101906102289190611daa565b61084d565b60405161023a9190611e18565b60405180910390f35b61025d60048036038101906102589190611f1c565b6108fe565b60405161026a9190611eae565b60405180910390f35b61027b6109b5565b6040516102889190611d52565b60405180910390f35b6102ab60048036038101906102a69190611f75565b610a47565b005b6102c760048036038101906102c291906120ea565b610bc7565b005b6102e360048036038101906102de9190611daa565b610c29565b6040516102f09190611d52565b60405180910390f35b610301610d7a565b60405161030e9190611d52565b60405180910390f35b610331600480360381019061032c919061216d565b610e08565b60405161033e9190611ca7565b60405180910390f35b60007f80ac58cd000000000000000000000000000000000000000000000000000000007bffffffffffffffffffffffffffffffffffffffffffffffffffffffff1916827bffffffffffffffffffffffffffffffffffffffffffffffffffffffff1916148061041257507f5b5e139f000000000000000000000000000000000000000000000000000000007bffffffffffffffffffffffffffffffffffffffffffffffffffffffff1916827bffffffffffffffffffffffffffffffffffffffffffffffffffffffff1916145b80610422575061042182610e9c565b5b9050919050565b606060008054610438906121dc565b80601f0160208091040260200160405190810160405280929190818152602001828054610464906121dc565b80156104b15780601f10610486576101008083540402835291602001916104b1565b820191906000526020600020905b81548152906001019060200180831161049457829003601f168201915b5050505050905090565b60006104c682610f06565b610505576040517f08c379a00000000000000000000000000000000000000000000000000000000081526004016104fc9061227f565b60405180910390fd5b6004600083815260200190815260200160002060009054906101000a900473ffffffffffffffffffffffffffffffffffffffff169050919050565b600061054b8261084d565b90508073ffffffffffffffffffffffffffffffffffffffff168373ffffffffffffffffffffffffffffffffffffffff16036105bb576040517f08c379a00000000000000000000000000000000000000000000000000000000081526004016105b290612311565b60405180910390fd5b8073ffffffffffffffffffffffffffffffffffffffff166105da610f72565b73ffffffffffffffffffffffffffffffffffffffff161480610609575061060881610603610f72565b610e08565b5b610648576040517f08c379a000000000000000000000000000000000000000000000000000000000815260040161063f906123a3565b60405180910390fd5b6106528383610f7a565b505050565b6000806106646007611033565b9050600060405180610160016040528061013681526020016132bc6101369139905060008161069284611041565b6040516020016106a392919061244b565b604051602081830303815290604052905060006106f06106c285611041565b6106cb846111a1565b6040516020016106dc9291906125aa565b6040516020818303038152906040526111a1565b9050600081604051602001610705919061263b565b60405160208183030381529060405290506107203386611338565b61072a8582611356565b61073460076113c3565b849550505050505090565b61075061074a610f72565b826113d9565b61078f576040517f08c379a0000000000000000000000000000000000000000000000000000000008152600401610786906126cf565b60405180910390fd5b61079a8383836114b7565b505050565b600980546107ac906121dc565b80601f01602080910402602001604051908101604052809291908181526020018280546107d8906121dc565b80156108255780601f106107fa57610100808354040283529160200191610825565b820191906000526020600020905b81548152906001019060200180831161080857829003601f168201915b505050505081565b61084883838360405180602001604052806000815250610bc7565b505050565b6000806002600084815260200190815260200160002060009054906101000a900473ffffffffffffffffffffffffffffffffffffffff169050600073ffffffffffffffffffffffffffffffffffffffff168173ffffffffffffffffffffffffffffffffffffffff16036108f5576040517f08c379a00000000000000000000000000000000000000000000000000000000081526004016108ec90612761565b60405180910390fd5b80915050919050565b60008073ffffffffffffffffffffffffffffffffffffffff168273ffffffffffffffffffffffffffffffffffffffff160361096e576040517f08c379a0000000000000000000000000000000000000000000000000000000008152600401610965906127f3565b60405180910390fd5b600360008373ffffffffffffffffffffffffffffffffffffffff1673ffffffffffffffffffffffffffffffffffffffff168152602001908152602001600020549050919050565b6060600180546109c4906121dc565b80601f01602080910402602001604051908101604052809291908181526020018280546109f0906121dc565b8015610a3d5780601f10610a1257610100808354040283529160200191610a3d565b820191906000526020600020905b815481529060010190602001808311610a2057829003601f168201915b5050505050905090565b610a4f610f72565b73ffffffffffffffffffffffffffffffffffffffff168273ffffffffffffffffffffffffffffffffffffffff1603610abc576040517f08c379a0000000000000000000000000000000000000000000000000000000008152600401610ab39061285f565b60405180910390fd5b8060056000610ac9610f72565b73ffffffffffffffffffffffffffffffffffffffff1673ffffffffffffffffffffffffffffffffffffffff16815260200190815260200160002060008473ffffffffffffffffffffffffffffffffffffffff1673ffffffffffffffffffffffffffffffffffffffff16815260200190815260200160002060006101000a81548160ff0219169083151502179055508173ffffffffffffffffffffffffffffffffffffffff16610b76610f72565b73ffffffffffffffffffffffffffffffffffffffff167f17307eab39ab6107e8899845ad3d59bd9653f200f220920489ca2b5937696c3183604051610bbb9190611ca7565b60405180910390a35050565b610bd8610bd2610f72565b836113d9565b610c17576040517f08c379a0000000000000000000000000000000000000000000000000000000008152600401610c0e906126cf565b60405180910390fd5b610c2384848484611712565b50505050565b6060610c3482610f06565b610c73576040517f08c379a0000000000000000000000000000000000000000000000000000000008152600401610c6a906128f1565b60405180910390fd5b6000600660008481526020019081526020016000208054610c93906121dc565b80601f0160208091040260200160405190810160405280929190818152602001828054610cbf906121dc565b8015610d0c5780601f10610ce157610100808354040283529160200191610d0c565b820191906000526020600020905b815481529060010190602001808311610cef57829003601f168201915b505050505090506000610d1d61176e565b90506000815103610d32578192505050610d75565b600082511115610d67578082604051602001610d4f929190612911565b60405160208183030381529060405292505050610d75565b610d7084611785565b925050505b919050565b60088054610d87906121dc565b80601f0160208091040260200160405190810160405280929190818152602001828054610db3906121dc565b8015610e005780601f10610dd557610100808354040283529160200191610e00565b820191906000526020600020905b815481529060010190602001808311610de357829003601f168201915b505050505081565b6000600560008473ffffffffffffffffffffffffffffffffffffffff1673ffffffffffffffffffffffffffffffffffffffff16815260200190815260200160002060008373ffffffffffffffffffffffffffffffffffffffff1673ffffffffffffffffffffffffffffffffffffffff16815260200190815260200160002060009054906101000a900460ff16905092915050565b60007f01ffc9a7000000000000000000000000000000000000000000000000000000007bffffffffffffffffffffffffffffffffffffffffffffffffffffffff1916827bffffffffffffffffffffffffffffffffffffffffffffffffffffffff1916149050919050565b60008073ffffffffffffffffffffffffffffffffffffffff166002600084815260200190815260200160002060009054906101000a900473ffffffffffffffffffffffffffffffffffffffff1673ffffffffffffffffffffffffffffffffffffffff1614159050919050565b600033905090565b816004600083815260200190815260200160002060006101000a81548173ffffffffffffffffffffffffffffffffffffffff021916908373ffffffffffffffffffffffffffffffffffffffff160217905550808273ffffffffffffffffffffffffffffffffffffffff16610fed8361084d565b73ffffffffffffffffffffffffffffffffffffffff167f8c5be1e5ebec7d5bd14f71427d1e84f3dd0314c0f7b2291e5b200ac8c7c3b92560405160405180910390a45050565b600081600001549050919050565b606060008203611088576040518060400160405280600181526020017f3000000000000000000000000000000000000000000000000000000000000000815250905061119c565b600082905060005b600082146110ba5780806110a390612964565b915050600a826110b391906129db565b9150611090565b60008167ffffffffffffffff8111156110d6576110d5611fbf565b5b6040519080825280601f01601f1916602001820160405280156111085781602001600182028036833780820191505090505b5090505b60008514611195576001826111219190612a0c565b9150600a856111309190612a40565b603061113c9190612a71565b60f81b81838151811061115257611151612aa5565b5b60200101907effffffffffffffffffffffffffffffffffffffffffffffffffffffffffffff1916908160001a905350600a8561118e91906129db565b945061110c565b8093505050505b919050565b6060600082519050600081036111c95760405180602001604052806000815250915050611333565b600060036002836111da9190612a71565b6111e491906129db565b60046111f09190612ad4565b905060006020826112019190612a71565b67ffffffffffffffff81111561121a57611219611fbf565b5b6040519080825280601f01601f19166020018201604052801561124c5781602001600182028036833780820191505090505b50905060006040518060600160405280604081526020016133f2604091399050600181016020830160005b868110156112f05760038101905062ffffff818a015116603f8160121c168401518060081b905060ff603f83600c1c1686015116810190508060081b905060ff603f8360061c1686015116810190508060081b905060ff603f831686015116810190508060e01b90508084526004840193505050611277565b50600386066001811461130a576002811461131a57611325565b613d3d60f01b6002830352611325565b603d60f81b60018303525b508484525050819450505050505b919050565b61135282826040518060200160405280600081525061182c565b5050565b61135f82610f06565b61139e576040517f08c379a000000000000000000000000000000000000000000000000000000000815260040161139590612b88565b60405180910390fd5b806006600084815260200190815260200160002090816113be9190612d54565b505050565b6001816000016000828254019250508190555050565b60006113e482610f06565b611423576040517f08c379a000000000000000000000000000000000000000000000000000000000815260040161141a90612e98565b60405180910390fd5b600061142e8361084d565b90508073ffffffffffffffffffffffffffffffffffffffff168473ffffffffffffffffffffffffffffffffffffffff16148061149d57508373ffffffffffffffffffffffffffffffffffffffff16611485846104bb565b73ffffffffffffffffffffffffffffffffffffffff16145b806114ae57506114ad8185610e08565b5b91505092915050565b8273ffffffffffffffffffffffffffffffffffffffff166114d78261084d565b73ffffffffffffffffffffffffffffffffffffffff161461152d576040517f08c379a000000000000000000000000000000000000000000000000000000000815260040161152490612f2a565b60405180910390fd5b600073ffffffffffffffffffffffffffffffffffffffff168273ffffffffffffffffffffffffffffffffffffffff160361159c576040517f08c379a000000000000000000000000000000000000000000000000000000000815260040161159390612fbc565b60405180910390fd5b6115a7838383611887565b6115b2600082610f7a565b6001600360008573ffffffffffffffffffffffffffffffffffffffff1673ffffffffffffffffffffffffffffffffffffffff16815260200190815260200160002060008282546116029190612a0c565b925050819055506001600360008473ffffffffffffffffffffffffffffffffffffffff1673ffffffffffffffffffffffffffffffffffffffff16815260200190815260200160002060008282546116599190612a71565b92505081905550816002600083815260200190815260200160002060006101000a81548173ffffffffffffffffffffffffffffffffffffffff021916908373ffffffffffffffffffffffffffffffffffffffff160217905550808273ffffffffffffffffffffffffffffffffffffffff168473ffffffffffffffffffffffffffffffffffffffff167fddf252ad1be2c89b69c2b068fc378daa952ba7f163c4a11628f55a4df523b3ef60405160405180910390a4505050565b61171d8484846114b7565b6117298484848461188c565b611768576040517f08c379a000000000000000000000000000000000000000000000000000000000815260040161175f9061304e565b60405180910390fd5b50505050565b606060405180602001604052806000815250905090565b606061179082610f06565b6117cf576040517f08c379a00000000000000000000000000000000000000000000000000000000081526004016117c6906130e0565b60405180910390fd5b60006117d961176e565b905060008151116117f95760405180602001604052806000815250611824565b8061180384611041565b604051602001611814929190612911565b6040516020818303038152906040525b915050919050565b6118368383611a13565b611843600084848461188c565b611882576040517f08c379a00000000000000000000000000000000000000000000000000000000081526004016118799061304e565b60405180910390fd5b505050565b505050565b60006118ad8473ffffffffffffffffffffffffffffffffffffffff16611be0565b15611a06578373ffffffffffffffffffffffffffffffffffffffff1663150b7a026118d6610f72565b8786866040518563ffffffff1660e01b81526004016118f89493929190613155565b6020604051808303816000875af192505050801561193457506040513d601f19601f8201168201806040525081019061193191906131b6565b60015b6119b6573d8060008114611964576040519150601f19603f3d011682016040523d82523d6000602084013e611969565b606091505b5060008151036119ae576040517f08c379a00000000000000000000000000000000000000000000000000000000081526004016119a59061304e565b60405180910390fd5b805181602001fd5b63150b7a0260e01b7bffffffffffffffffffffffffffffffffffffffffffffffffffffffff1916817bffffffffffffffffffffffffffffffffffffffffffffffffffffffff191614915050611a0b565b600190505b949350505050565b600073ffffffffffffffffffffffffffffffffffffffff168273ffffffffffffffffffffffffffffffffffffffff1603611a82576040517f08c379a0000000000000000000000000000000000000000000000000000000008152600401611a799061322f565b60405180910390fd5b611a8b81610f06565b15611acb576040517f08c379a0000000000000000000000000000000000000000000000000000000008152600401611ac29061329b565b60405180910390fd5b611ad760008383611887565b6001600360008473ffffffffffffffffffffffffffffffffffffffff1673ffffffffffffffffffffffffffffffffffffffff1681526020019081526020016000206000828254611b279190612a71565b92505081905550816002600083815260200190815260200160002060006101000a81548173ffffffffffffffffffffffffffffffffffffffff021916908373ffffffffffffffffffffffffffffffffffffffff160217905550808273ffffffffffffffffffffffffffffffffffffffff16600073ffffffffffffffffffffffffffffffffffffffff167fddf252ad1be2c89b69c2b068fc378daa952ba7f163c4a11628f55a4df523b3ef60405160405180910390a45050565b600080823b905060008111915050919050565b6000604051905090565b600080fd5b600080fd5b60007fffffffff0000000000000000000000000000000000000000000000000000000082169050919050565b611c3c81611c07565b8114611c4757600080fd5b50565b600081359050611c5981611c33565b92915050565b600060208284031215611c7557611c74611bfd565b5b6000611c8384828501611c4a565b91505092915050565b60008115159050919050565b611ca181611c8c565b82525050565b6000602082019050611cbc6000830184611c98565b92915050565b600081519050919050565b600082825260208201905092915050565b60005b83811015611cfc578082015181840152602081019050611ce1565b60008484015250505050565b6000601f19601f8301169050919050565b6000611d2482611cc2565b611d2e8185611ccd565b9350611d3e818560208601611cde565b611d4781611d08565b840191505092915050565b60006020820190508181036000830152611d6c8184611d19565b905092915050565b6000819050919050565b611d8781611d74565b8114611d9257600080fd5b50565b600081359050611da481611d7e565b92915050565b600060208284031215611dc057611dbf611bfd565b5b6000611dce84828501611d95565b91505092915050565b600073ffffffffffffffffffffffffffffffffffffffff82169050919050565b6000611e0282611dd7565b9050919050565b611e1281611df7565b82525050565b6000602082019050611e2d6000830184611e09565b92915050565b611e3c81611df7565b8114611e4757600080fd5b50565b600081359050611e5981611e33565b92915050565b60008060408385031215611e7657611e75611bfd565b5b6000611e8485828601611e4a565b9250506020611e9585828601611d95565b9150509250929050565b611ea881611d74565b82525050565b6000602082019050611ec36000830184611e9f565b92915050565b600080600060608486031215611ee257611ee1611bfd565b5b6000611ef086828701611e4a565b9350506020611f0186828701611e4a565b9250506040611f1286828701611d95565b9150509250925092565b600060208284031215611f3257611f31611bfd565b5b6000611f4084828501611e4a565b91505092915050565b611f5281611c8c565b8114611f5d57600080fd5b50565b600081359050611f6f81611f49565b92915050565b60008060408385031215611f8c57611f8b611bfd565b5b6000611f9a85828601611e4a565b9250506020611fab85828601611f60565b9150509250929050565b600080fd5b600080fd5b7f4e487b7100000000000000000000000000000000000000000000000000000000600052604160045260246000fd5b611ff782611d08565b810181811067ffffffffffffffff8211171561201657612015611fbf565b5b80604052505050565b6000612029611bf3565b90506120358282611fee565b919050565b600067ffffffffffffffff82111561205557612054611fbf565b5b61205e82611d08565b9050602081019050919050565b82818337600083830152505050565b600061208d6120888461203a565b61201f565b9050828152602081018484840111156120a9576120a8611fba565b5b6120b484828561206b565b509392505050565b600082601f8301126120d1576120d0611fb5565b5b81356120e184826020860161207a565b91505092915050565b6000806000806080858703121561210457612103611bfd565b5b600061211287828801611e4a565b945050602061212387828801611e4a565b935050604061213487828801611d95565b925050606085013567ffffffffffffffff81111561215557612154611c02565b5b612161878288016120bc565b91505092959194509250565b6000806040838503121561218457612183611bfd565b5b600061219285828601611e4a565b92505060206121a385828601611e4a565b9150509250929050565b7f4e487b7100000000000000000000000000000000000000000000000000000000600052602260045260246000fd5b600060028204905060018216806121f457607f821691505b602082108103612207576122066121ad565b5b50919050565b7f4552433732313a20617070726f76656420717565727920666f72206e6f6e657860008201527f697374656e7420746f6b656e0000000000000000000000000000000000000000602082015250565b6000612269602c83611ccd565b91506122748261220d565b604082019050919050565b600060208201905081810360008301526122988161225c565b9050919050565b7f4552433732313a20617070726f76616c20746f2063757272656e74206f776e6560008201527f7200000000000000000000000000000000000000000000000000000000000000602082015250565b60006122fb602183611ccd565b91506123068261229f565b604082019050919050565b6000602082019050818103600083015261232a816122ee565b9050919050565b7f4552433732313a20617070726f76652063616c6c6572206973206e6f74206f7760008201527f6e6572206e6f7220617070726f76656420666f7220616c6c0000000000000000602082015250565b600061238d603883611ccd565b915061239882612331565b604082019050919050565b600060208201905081810360008301526123bc81612380565b9050919050565b600081905092915050565b60006123d982611cc2565b6123e381856123c3565b93506123f3818560208601611cde565b80840191505092915050565b7f3c2f746578743e3c2f7376673e00000000000000000000000000000000000000600082015250565b6000612435600d836123c3565b9150612440826123ff565b600d82019050919050565b600061245782856123ce565b915061246382846123ce565b915061246e82612428565b91508190509392505050565b7f7b226e616d65223a202200000000000000000000000000000000000000000000600082015250565b60006124b0600a836123c3565b91506124bb8261247a565b600a82019050919050565b7f222c20226465736372697074696f6e223a20224120686967686c79206163636c60008201527f61696d656420636f6c6c656374696f6e2057617272696f7273222c2022696d6160208201527f6765223a2022646174613a696d6167652f7376672b786d6c3b6261736536342c604082015250565b60006125486060836123c3565b9150612553826124c6565b606082019050919050565b7f227d000000000000000000000000000000000000000000000000000000000000600082015250565b60006125946002836123c3565b915061259f8261255e565b600282019050919050565b60006125b5826124a3565b91506125c182856123ce565b91506125cc8261253b565b91506125d882846123ce565b91506125e382612587565b91508190509392505050565b7f646174613a6170706c69636174696f6e2f6a736f6e3b6261736536342c000000600082015250565b6000612625601d836123c3565b9150612630826125ef565b601d82019050919050565b600061264682612618565b915061265282846123ce565b915081905092915050565b7f4552433732313a207472616e736665722063616c6c6572206973206e6f74206f60008201527f776e6572206e6f7220617070726f766564000000000000000000000000000000602082015250565b60006126b9603183611ccd565b91506126c48261265d565b604082019050919050565b600060208201905081810360008301526126e8816126ac565b9050919050565b7f4552433732313a206f776e657220717565727920666f72206e6f6e657869737460008201527f656e7420746f6b656e0000000000000000000000000000000000000000000000602082015250565b600061274b602983611ccd565b9150612756826126ef565b604082019050919050565b6000602082019050818103600083015261277a8161273e565b9050919050565b7f4552433732313a2062616c616e636520717565727920666f7220746865207a6560008201527f726f206164647265737300000000000000000000000000000000000000000000602082015250565b60006127dd602a83611ccd565b91506127e882612781565b604082019050919050565b6000602082019050818103600083015261280c816127d0565b9050919050565b7f4552433732313a20617070726f766520746f2063616c6c657200000000000000600082015250565b6000612849601983611ccd565b915061285482612813565b602082019050919050565b600060208201905081810360008301526128788161283c565b9050919050565b7f45524337323155524953746f726167653a2055524920717565727920666f722060008201527f6e6f6e6578697374656e7420746f6b656e000000000000000000000000000000602082015250565b60006128db603183611ccd565b91506128e68261287f565b604082019050919050565b6000602082019050818103600083015261290a816128ce565b9050919050565b600061291d82856123ce565b915061292982846123ce565b91508190509392505050565b7f4e487b7100000000000000000000000000000000000000000000000000000000600052601160045260246000fd5b600061296f82611d74565b91507fffffffffffffffffffffffffffffffffffffffffffffffffffffffffffffffff82036129a1576129a0612935565b5b600182019050919050565b7f4e487b7100000000000000000000000000000000000000000000000000000000600052601260045260246000fd5b60006129e682611d74565b91506129f183611d74565b925082612a0157612a006129ac565b5b828204905092915050565b6000612a1782611d74565b9150612a2283611d74565b9250828203905081811115612a3a57612a39612935565b5b92915050565b6000612a4b82611d74565b9150612a5683611d74565b925082612a6657612a656129ac565b5b828206905092915050565b6000612a7c82611d74565b9150612a8783611d74565b9250828201905080821115612a9f57612a9e612935565b5b92915050565b7f4e487b7100000000000000000000000000000000000000000000000000000000600052603260045260246000fd5b6000612adf82611d74565b9150612aea83611d74565b9250828202612af881611d74565b91508282048414831517612b0f57612b0e612935565b5b5092915050565b7f45524337323155524953746f726167653a2055524920736574206f66206e6f6e60008201527f6578697374656e7420746f6b656e000000000000000000000000000000000000602082015250565b6000612b72602e83611ccd565b9150612b7d82612b16565b604082019050919050565b60006020820190508181036000830152612ba181612b65565b9050919050565b60008190508160005260206000209050919050565b60006020601f8301049050919050565b600082821b905092915050565b600060088302612c0a7fffffffffffffffffffffffffffffffffffffffffffffffffffffffffffffffff82612bcd565b612c148683612bcd565b95508019841693508086168417925050509392505050565b6000819050919050565b6000612c51612c4c612c4784611d74565b612c2c565b611d74565b9050919050565b6000819050919050565b612c6b83612c36565b612c7f612c7782612c58565b848454612bda565b825550505050565b600090565b612c94612c87565b612c9f818484612c62565b505050565b5b81811015612cc357612cb8600082612c8c565b600181019050612ca5565b5050565b601f821115612d0857612cd981612ba8565b612ce284612bbd565b81016020851015612cf1578190505b612d05612cfd85612bbd565b830182612ca4565b50505b505050565b600082821c905092915050565b6000612d2b60001984600802612d0d565b1980831691505092915050565b6000612d448383612d1a565b9150826002028217905092915050565b612d5d82611cc2565b67ffffffffffffffff811115612d7657612d75611fbf565b5b612d8082546121dc565b612d8b828285612cc7565b600060209050601f831160018114612dbe5760008415612dac578287015190505b612db68582612d38565b865550612e1e565b601f198416612dcc86612ba8565b60005b82811015612df457848901518255600182019150602085019450602081019050612dcf565b86831015612e115784890151612e0d601f891682612d1a565b8355505b6001600288020188555050505b505050505050565b7f4552433732313a206f70657261746f7220717565727920666f72206e6f6e657860008201527f697374656e7420746f6b656e0000000000000000000000000000000000000000602082015250565b6000612e82602c83611ccd565b9150612e8d82612e26565b604082019050919050565b60006020820190508181036000830152612eb181612e75565b9050919050565b7f4552433732313a207472616e73666572206f6620746f6b656e2074686174206960008201527f73206e6f74206f776e0000000000000000000000000000000000000000000000602082015250565b6000612f14602983611ccd565b9150612f1f82612eb8565b604082019050919050565b60006020820190508181036000830152612f4381612f07565b9050919050565b7f4552433732313a207472616e7366657220746f20746865207a65726f2061646460008201527f7265737300000000000000000000000000000000000000000000000000000000602082015250565b6000612fa6602483611ccd565b9150612fb182612f4a565b604082019050919050565b60006020820190508181036000830152612fd581612f99565b9050919050565b7f4552433732313a207472616e7366657220746f206e6f6e20455243373231526560008201527f63656976657220696d706c656d656e7465720000000000000000000000000000602082015250565b6000613038603283611ccd565b915061304382612fdc565b604082019050919050565b600060208201905081810360008301526130678161302b565b9050919050565b7f4552433732314d657461646174613a2055524920717565727920666f72206e6f60008201527f6e6578697374656e7420746f6b656e0000000000000000000000000000000000602082015250565b60006130ca602f83611ccd565b91506130d58261306e565b604082019050919050565b600060208201905081810360008301526130f9816130bd565b9050919050565b600081519050919050565b600082825260208201905092915050565b600061312782613100565b613131818561310b565b9350613141818560208601611cde565b61314a81611d08565b840191505092915050565b600060808201905061316a6000830187611e09565b6131776020830186611e09565b6131846040830185611e9f565b8181036060830152613196818461311c565b905095945050505050565b6000815190506131b081611c33565b92915050565b6000602082840312156131cc576131cb611bfd565b5b60006131da848285016131a1565b91505092915050565b7f4552433732313a206d696e7420746f20746865207a65726f2061646472657373600082015250565b6000613219602083611ccd565b9150613224826131e3565b602082019050919050565b600060208201905081810360008301526132488161320c565b9050919050565b7f4552433732313a20746f6b656e20616c7265616479206d696e74656400000000600082015250565b6000613285601c83611ccd565b91506132908261324f565b602082019050919050565b600060208201905081810360008301526132b481613278565b905091905056fe3c7376672076696577426f783d2730203020333530203335302720786d6c6e733d27687474703a2f2f7777772e77332e6f72672f323030302f73766727203e3c7374796c653e2e62617365207b2066696c6c3a2077686974653b20666f6e742d66616d696c793a2073657269663b20666f6e742d73697a653a20323470783b207d3c2f7374796c653e3c636972636c652063783d27313735272063793d273137352720723d27313735272077696474683d273130302527206865696768743d2731303025272066696c6c3d27626c61636b273e3c2f636972636c653e3c7465787420783d273530252720793d273530252720636c6173733d27626173652720646f6d696e616e742d626173656c696e653d276d6964646c652720746578742d616e63686f723d276d6964646c65273e546f6b656e20234142434445464748494a4b4c4d4e4f505152535455565758595a6162636465666768696a6b6c6d6e6f707172737475767778797a303132333435363738392b2fa26469706673582212207a0ad22ee8053ab17ccf5821c547a7bcfa71d7328bbe9b86418ff31fee4ccf7464736f6c63430008110033",
  "linkReferences": {},
  "deployedLinkReferences": {}
}