{
  "_format": "hh-sol-artifact-1",
  "contractName": "Ourtube",
  "sourceName": "contracts/OurTube.sol",
  "abi": [
    {
      "inputs": [],
      "stateMutability": "nonpayable",
      "type": "constructor"
    },
    {
      "anonymous": false,
      "inputs": [
        {
          "indexed": false,
          "internalType": "uint256",
          "name": "id",
          "type": "uint256"
        },
        {
          "indexed": false,
          "internalType": "string",
          "name": "hash",
          "type": "string"
        },
        {
          "indexed": false,
          "internalType": "string",
          "name": "title",
          "type": "string"
        },
        {
          "indexed": false,
          "internalType": "string",
          "name": "description",
          "type": "string"
        },
        {
          "indexed": false,
          "internalType": "string",
          "name": "location",
          "type": "string"
        },
        {
          "indexed": false,
          "internalType": "string",
          "name": "category",
          "type": "string"
        },
        {
          "indexed": false,
          "internalType": "string",
          "name": "thumbnailHash",
          "type": "string"
        },
        {
          "indexed": false,
          "internalType": "bool",
          "name": "isAudio",
          "type": "bool"
        },
        {
          "indexed": false,
          "internalType": "string",
          "name": "date",
          "type": "string"
        },
        {
          "indexed": false,
          "internalType": "address",
          "name": "author",
          "type": "address"
        }
      ],
      "name": "VideoUploaded",
      "type": "event"
    },
    {
      "inputs": [],
      "name": "name",
      "outputs": [
        {
          "internalType": "string",
          "name": "",
          "type": "string"
        }
      ],
      "stateMutability": "view",
      "type": "function"
    },
    {
      "inputs": [
        {
          "internalType": "string",
          "name": "_videoHash",
          "type": "string"
        },
        {
          "internalType": "string",
          "name": "_title",
          "type": "string"
        },
        {
          "internalType": "string",
          "name": "_description",
          "type": "string"
        },
        {
          "internalType": "string",
          "name": "_location",
          "type": "string"
        },
        {
          "internalType": "string",
          "name": "_category",
          "type": "string"
        },
        {
          "internalType": "string",
          "name": "_thumbnailHash",
          "type": "string"
        },
        {
          "internalType": "bool",
          "name": "_isAudio",
          "type": "bool"
        },
        {
          "internalType": "string",
          "name": "_date",
          "type": "string"
        }
      ],
      "name": "uploadVideo",
      "outputs": [],
      "stateMutability": "nonpayable",
      "type": "function"
    },
    {
      "inputs": [],
      "name": "videoCount",
      "outputs": [
        {
          "internalType": "uint256",
          "name": "",
          "type": "uint256"
        }
      ],
      "stateMutability": "view",
      "type": "function"
    },
    {
      "inputs": [
        {
          "internalType": "uint256",
          "name": "",
          "type": "uint256"
        }
      ],
      "name": "videos",
      "outputs": [
        {
          "internalType": "uint256",
          "name": "id",
          "type": "uint256"
        },
        {
          "internalType": "string",
          "name": "hash",
          "type": "string"
        },
        {
          "internalType": "string",
          "name": "title",
          "type": "string"
        },
        {
          "internalType": "string",
          "name": "description",
          "type": "string"
        },
        {
          "internalType": "string",
          "name": "location",
          "type": "string"
        },
        {
          "internalType": "string",
          "name": "category",
          "type": "string"
        },
        {
          "internalType": "string",
          "name": "thumbnailHash",
          "type": "string"
        },
        {
          "internalType": "bool",
          "name": "isAudio",
          "type": "bool"
        },
        {
          "internalType": "string",
          "name": "date",
          "type": "string"
        },
        {
          "internalType": "address",
          "name": "author",
          "type": "address"
        }
      ],
      "stateMutability": "view",
      "type": "function"
    }
  ],
  "bytecode": "0x6000805560c0604052601060808190526f13dd5c9d1d58994810dbdb9d1c9858dd60821b60a0908152620000379160019190620000fa565b503480156200004557600080fd5b5062000085604051806040016040528060118152602001704465706c6f79696e67204f75745475626560781b8152506200008b60201b6200075e1760201c565b62000235565b620000d681604051602401620000a29190620001a0565b60408051601f198184030181529190526020810180516001600160e01b0390811663104c13eb60e21b17909152620000d916565b50565b80516a636f6e736f6c652e6c6f67602083016000808483855afa5050505050565b8280546200010890620001f8565b90600052602060002090601f0160209004810192826200012c576000855562000177565b82601f106200014757805160ff191683800117855562000177565b8280016001018555821562000177579182015b82811115620001775782518255916020019190600101906200015a565b506200018592915062000189565b5090565b5b808211156200018557600081556001016200018a565b600060208083528351808285015260005b81811015620001cf57858101830151858201604001528201620001b1565b81811115620001e2576000604083870101525b50601f01601f1916929092016040019392505050565b600181811c908216806200020d57607f821691505b602082108114156200022f57634e487b7160e01b600052602260045260246000fd5b50919050565b610c1880620002456000396000f3fe608060405234801561001057600080fd5b506004361061004c5760003560e01c806306fdde0314610051578063b20f24bf1461006f578063c61b5f4c14610084578063e6821bf51461009b575b600080fd5b6100596100c4565b60405161006691906108ab565b60405180910390f35b61008261007d36600461097d565b610152565b005b61008d60005481565b604051908152602001610066565b6100ae6100a9366004610aa9565b610347565b6040516100669a99989796959493929190610ac2565b600180546100d190610b7e565b80601f01602080910402602001604051908101604052809291908181526020018280546100fd90610b7e565b801561014a5780601f1061011f5761010080835404028352916020019161014a565b820191906000526020600020905b81548152906001019060200180831161012d57829003601f168201915b505050505081565b600088511161016057600080fd5b600087511161016e57600080fd5b3361017857600080fd5b60008054908061018783610bb9565b909155505060408051610140810182526000805480835260208084018d81528486018d9052606085018c9052608085018b905260a085018a905260c0850189905287151560e0860152610100850187905233610120860152918352600281529390912082518155905180519293919261020692600185019201906107c5565b50604082015180516102229160028401916020909101906107c5565b506060820151805161023e9160038401916020909101906107c5565b506080820151805161025a9160048401916020909101906107c5565b5060a082015180516102769160058401916020909101906107c5565b5060c082015180516102929160068401916020909101906107c5565b5060e082015160078201805460ff191691151591909117905561010082015180516102c79160088401916020909101906107c5565b506101209190910151600990910180546001600160a01b0319166001600160a01b039092169190911790556000546040517f59b01d7253e58066e08807923c0472b8bca64305f2cb0443a998c4c6f7ca8a0191610335918b908b908b908b908b908b908b908b903390610ac2565b60405180910390a15050505050505050565b6002602052600090815260409020805460018201805491929161036990610b7e565b80601f016020809104026020016040519081016040528092919081815260200182805461039590610b7e565b80156103e25780601f106103b7576101008083540402835291602001916103e2565b820191906000526020600020905b8154815290600101906020018083116103c557829003601f168201915b5050505050908060020180546103f790610b7e565b80601f016020809104026020016040519081016040528092919081815260200182805461042390610b7e565b80156104705780601f1061044557610100808354040283529160200191610470565b820191906000526020600020905b81548152906001019060200180831161045357829003601f168201915b50505050509080600301805461048590610b7e565b80601f01602080910402602001604051908101604052809291908181526020018280546104b190610b7e565b80156104fe5780601f106104d3576101008083540402835291602001916104fe565b820191906000526020600020905b8154815290600101906020018083116104e157829003601f168201915b50505050509080600401805461051390610b7e565b80601f016020809104026020016040519081016040528092919081815260200182805461053f90610b7e565b801561058c5780601f106105615761010080835404028352916020019161058c565b820191906000526020600020905b81548152906001019060200180831161056f57829003601f168201915b5050505050908060050180546105a190610b7e565b80601f01602080910402602001604051908101604052809291908181526020018280546105cd90610b7e565b801561061a5780601f106105ef5761010080835404028352916020019161061a565b820191906000526020600020905b8154815290600101906020018083116105fd57829003601f168201915b50505050509080600601805461062f90610b7e565b80601f016020809104026020016040519081016040528092919081815260200182805461065b90610b7e565b80156106a85780601f1061067d576101008083540402835291602001916106a8565b820191906000526020600020905b81548152906001019060200180831161068b57829003601f168201915b5050506007840154600885018054949560ff9092169491935091506106cc90610b7e565b80601f01602080910402602001604051908101604052809291908181526020018280546106f890610b7e565b80156107455780601f1061071a57610100808354040283529160200191610745565b820191906000526020600020905b81548152906001019060200180831161072857829003601f168201915b505050600990930154919250506001600160a01b03168a565b6107a18160405160240161077291906108ab565b60408051601f198184030181529190526020810180516001600160e01b031663104c13eb60e21b1790526107a4565b50565b80516a636f6e736f6c652e6c6f67602083016000808483855afa5050505050565b8280546107d190610b7e565b90600052602060002090601f0160209004810192826107f35760008555610839565b82601f1061080c57805160ff1916838001178555610839565b82800160010185558215610839579182015b8281111561083957825182559160200191906001019061081e565b50610845929150610849565b5090565b5b80821115610845576000815560010161084a565b6000815180845260005b8181101561088457602081850181015186830182015201610868565b81811115610896576000602083870101525b50601f01601f19169290920160200192915050565b6020815260006108be602083018461085e565b9392505050565b634e487b7160e01b600052604160045260246000fd5b600082601f8301126108ec57600080fd5b813567ffffffffffffffff80821115610907576109076108c5565b604051601f8301601f19908116603f0116810190828211818310171561092f5761092f6108c5565b8160405283815286602085880101111561094857600080fd5b836020870160208301376000602085830101528094505050505092915050565b8035801515811461097857600080fd5b919050565b600080600080600080600080610100898b03121561099a57600080fd5b883567ffffffffffffffff808211156109b257600080fd5b6109be8c838d016108db565b995060208b01359150808211156109d457600080fd5b6109e08c838d016108db565b985060408b01359150808211156109f657600080fd5b610a028c838d016108db565b975060608b0135915080821115610a1857600080fd5b610a248c838d016108db565b965060808b0135915080821115610a3a57600080fd5b610a468c838d016108db565b955060a08b0135915080821115610a5c57600080fd5b610a688c838d016108db565b9450610a7660c08c01610968565b935060e08b0135915080821115610a8c57600080fd5b50610a998b828c016108db565b9150509295985092959890939650565b600060208284031215610abb57600080fd5b5035919050565b60006101408c8352806020840152610adc8184018d61085e565b90508281036040840152610af0818c61085e565b90508281036060840152610b04818b61085e565b90508281036080840152610b18818a61085e565b905082810360a0840152610b2c818961085e565b905082810360c0840152610b40818861085e565b905085151560e0840152828103610100840152610b5d818661085e565b91505060018060a01b0383166101208301529b9a5050505050505050505050565b600181811c90821680610b9257607f821691505b60208210811415610bb357634e487b7160e01b600052602260045260246000fd5b50919050565b6000600019821415610bdb57634e487b7160e01b600052601160045260246000fd5b506001019056fea264697066735822122056ce54ecdd0b3b7e201b6d999e4d2cf5a913cfbd5d59b79806328c5800aea86064736f6c63430008090033",
  "linkReferences": {},
  "deployedLinkReferences": {}
}