{
  "_format": "hh-sol-artifact-1",
  "contractName": "Ourtube",
  "sourceName": "contracts/OurTube.sol",
  "abi": [
    {
      "inputs": [],
      "stateMutability": "nonpayable",
      "type": "constructor"
    },
    {
      "anonymous": false,
      "inputs": [
        {
          "indexed": false,
          "internalType": "uint256",
          "name": "id",
          "type": "uint256"
        },
        {
          "indexed": false,
          "internalType": "string",
          "name": "hash",
          "type": "string"
        },
        {
          "indexed": false,
          "internalType": "string",
          "name": "title",
          "type": "string"
        },
        {
          "indexed": false,
          "internalType": "string",
          "name": "description",
          "type": "string"
        },
        {
          "indexed": false,
          "internalType": "string",
          "name": "location",
          "type": "string"
        },
        {
          "indexed": false,
          "internalType": "string",
          "name": "category",
          "type": "string"
        },
        {
          "indexed": false,
          "internalType": "string",
          "name": "thumbnailHash",
          "type": "string"
        },
        {
          "indexed": false,
          "internalType": "bool",
          "name": "isAudio",
          "type": "bool"
        },
        {
          "indexed": false,
          "internalType": "string",
          "name": "date",
          "type": "string"
        },
        {
          "indexed": false,
          "internalType": "address",
          "name": "author",
          "type": "address"
        }
      ],
      "name": "VideoUploaded",
      "type": "event"
    },
    {
      "inputs": [],
      "name": "name",
      "outputs": [
        {
          "internalType": "string",
          "name": "",
          "type": "string"
        }
      ],
      "stateMutability": "view",
      "type": "function"
    },
    {
      "inputs": [
        {
          "internalType": "string",
          "name": "_videoHash",
          "type": "string"
        },
        {
          "internalType": "string",
          "name": "_title",
          "type": "string"
        },
        {
          "internalType": "string",
          "name": "_description",
          "type": "string"
        },
        {
          "internalType": "string",
          "name": "_location",
          "type": "string"
        },
        {
          "internalType": "string",
          "name": "_category",
          "type": "string"
        },
        {
          "internalType": "string",
          "name": "_thumbnailHash",
          "type": "string"
        },
        {
          "internalType": "bool",
          "name": "_isAudio",
          "type": "bool"
        },
        {
          "internalType": "string",
          "name": "_date",
          "type": "string"
        }
      ],
      "name": "uploadVideo",
      "outputs": [],
      "stateMutability": "nonpayable",
      "type": "function"
    },
    {
      "inputs": [],
      "name": "videoCount",
      "outputs": [
        {
          "internalType": "uint256",
          "name": "",
          "type": "uint256"
        }
      ],
      "stateMutability": "view",
      "type": "function"
    },
    {
      "inputs": [
        {
          "internalType": "uint256",
          "name": "",
          "type": "uint256"
        }
      ],
      "name": "videos",
      "outputs": [
        {
          "internalType": "uint256",
          "name": "id",
          "type": "uint256"
        },
        {
          "internalType": "string",
          "name": "hash",
          "type": "string"
        },
        {
          "internalType": "string",
          "name": "title",
          "type": "string"
        },
        {
          "internalType": "string",
          "name": "description",
          "type": "string"
        },
        {
          "internalType": "string",
          "name": "location",
          "type": "string"
        },
        {
          "internalType": "string",
          "name": "category",
          "type": "string"
        },
        {
          "internalType": "string",
          "name": "thumbnailHash",
          "type": "string"
        },
        {
          "internalType": "bool",
          "name": "isAudio",
          "type": "bool"
        },
        {
          "internalType": "string",
          "name": "date",
          "type": "string"
        },
        {
          "internalType": "address",
          "name": "author",
          "type": "address"
        }
      ],
      "stateMutability": "view",
      "type": "function"
    }
  ],
  "bytecode": "0x6080604052600080556040518060400160405280601081526020017f4f75727475626520436f6e747261637400000000000000000000000000000000815250600190816200004e9190620003f4565b503480156200005c57600080fd5b50620000a86040518060400160405280601181526020017f4465706c6f79696e67204f757454756265000000000000000000000000000000815250620000ae60201b620007f41760201c565b6200058e565b6200014e81604051602401620000c591906200056a565b6040516020818303038152906040527f41304fac000000000000000000000000000000000000000000000000000000007bffffffffffffffffffffffffffffffffffffffffffffffffffffffff19166020820180517bffffffffffffffffffffffffffffffffffffffffffffffffffffffff83818316178352505050506200015160201b60201c565b50565b60008151905060006a636f6e736f6c652e6c6f679050602083016000808483855afa5050505050565b600081519050919050565b7f4e487b7100000000000000000000000000000000000000000000000000000000600052604160045260246000fd5b7f4e487b7100000000000000000000000000000000000000000000000000000000600052602260045260246000fd5b60006002820490506001821680620001fc57607f821691505b602082108103620002125762000211620001b4565b5b50919050565b60008190508160005260206000209050919050565b60006020601f8301049050919050565b600082821b905092915050565b6000600883026200027c7fffffffffffffffffffffffffffffffffffffffffffffffffffffffffffffffff826200023d565b6200028886836200023d565b95508019841693508086168417925050509392505050565b6000819050919050565b6000819050919050565b6000620002d5620002cf620002c984620002a0565b620002aa565b620002a0565b9050919050565b6000819050919050565b620002f183620002b4565b620003096200030082620002dc565b8484546200024a565b825550505050565b600090565b6200032062000311565b6200032d818484620002e6565b505050565b5b8181101562000355576200034960008262000316565b60018101905062000333565b5050565b601f821115620003a4576200036e8162000218565b62000379846200022d565b8101602085101562000389578190505b620003a162000398856200022d565b83018262000332565b50505b505050565b600082821c905092915050565b6000620003c960001984600802620003a9565b1980831691505092915050565b6000620003e48383620003b6565b9150826002028217905092915050565b620003ff826200017a565b67ffffffffffffffff8111156200041b576200041a62000185565b5b620004278254620001e3565b6200043482828562000359565b600060209050601f8311600181146200046c576000841562000457578287015190505b620004638582620003d6565b865550620004d3565b601f1984166200047c8662000218565b60005b82811015620004a6578489015182556001820191506020850194506020810190506200047f565b86831015620004c65784890151620004c2601f891682620003b6565b8355505b6001600288020188555050505b505050505050565b600082825260208201905092915050565b60005b838110156200050c578082015181840152602081019050620004ef565b60008484015250505050565b6000601f19601f8301169050919050565b600062000536826200017a565b620005428185620004db565b935062000554818560208601620004ec565b6200055f8162000518565b840191505092915050565b6000602082019050818103600083015262000586818462000529565b905092915050565b611198806200059e6000396000f3fe608060405234801561001057600080fd5b506004361061004c5760003560e01c806306fdde0314610051578063b20f24bf1461006f578063c61b5f4c1461008b578063e6821bf5146100a9575b600080fd5b6100596100e2565b6040516100669190610946565b60405180910390f35b61008960048036038101906100849190610ae9565b610170565b005b6100936103b5565b6040516100a09190610c7c565b60405180910390f35b6100c360048036038101906100be9190610cc3565b6103bb565b6040516100d99a99989796959493929190610d40565b60405180910390f35b600180546100ef90610e3c565b80601f016020809104026020016040519081016040528092919081815260200182805461011b90610e3c565b80156101685780601f1061013d57610100808354040283529160200191610168565b820191906000526020600020905b81548152906001019060200180831161014b57829003601f168201915b505050505081565b600088511161017e57600080fd5b600087511161018c57600080fd5b600073ffffffffffffffffffffffffffffffffffffffff163373ffffffffffffffffffffffffffffffffffffffff16036101c557600080fd5b6000808154809291906101d790610e9c565b9190505550604051806101400160405280600054815260200189815260200188815260200187815260200186815260200185815260200184815260200183151581526020018281526020013373ffffffffffffffffffffffffffffffffffffffff16815250600260008054815260200190815260200160002060008201518160000155602082015181600101908161026f9190611090565b5060408201518160020190816102859190611090565b50606082015181600301908161029b9190611090565b5060808201518160040190816102b19190611090565b5060a08201518160050190816102c79190611090565b5060c08201518160060190816102dd9190611090565b5060e08201518160070160006101000a81548160ff0219169083151502179055506101008201518160080190816103149190611090565b506101208201518160090160006101000a81548173ffffffffffffffffffffffffffffffffffffffff021916908373ffffffffffffffffffffffffffffffffffffffff1602179055509050507f59b01d7253e58066e08807923c0472b8bca64305f2cb0443a998c4c6f7ca8a016000548989898989898989336040516103a39a99989796959493929190610d40565b60405180910390a15050505050505050565b60005481565b60026020528060005260406000206000915090508060000154908060010180546103e490610e3c565b80601f016020809104026020016040519081016040528092919081815260200182805461041090610e3c565b801561045d5780601f106104325761010080835404028352916020019161045d565b820191906000526020600020905b81548152906001019060200180831161044057829003601f168201915b50505050509080600201805461047290610e3c565b80601f016020809104026020016040519081016040528092919081815260200182805461049e90610e3c565b80156104eb5780601f106104c0576101008083540402835291602001916104eb565b820191906000526020600020905b8154815290600101906020018083116104ce57829003601f168201915b50505050509080600301805461050090610e3c565b80601f016020809104026020016040519081016040528092919081815260200182805461052c90610e3c565b80156105795780601f1061054e57610100808354040283529160200191610579565b820191906000526020600020905b81548152906001019060200180831161055c57829003601f168201915b50505050509080600401805461058e90610e3c565b80601f01602080910402602001604051908101604052809291908181526020018280546105ba90610e3c565b80156106075780601f106105dc57610100808354040283529160200191610607565b820191906000526020600020905b8154815290600101906020018083116105ea57829003601f168201915b50505050509080600501805461061c90610e3c565b80601f016020809104026020016040519081016040528092919081815260200182805461064890610e3c565b80156106955780601f1061066a57610100808354040283529160200191610695565b820191906000526020600020905b81548152906001019060200180831161067857829003601f168201915b5050505050908060060180546106aa90610e3c565b80601f01602080910402602001604051908101604052809291908181526020018280546106d690610e3c565b80156107235780601f106106f857610100808354040283529160200191610723565b820191906000526020600020905b81548152906001019060200180831161070657829003601f168201915b5050505050908060070160009054906101000a900460ff169080600801805461074b90610e3c565b80601f016020809104026020016040519081016040528092919081815260200182805461077790610e3c565b80156107c45780601f10610799576101008083540402835291602001916107c4565b820191906000526020600020905b8154815290600101906020018083116107a757829003601f168201915b5050505050908060090160009054906101000a900473ffffffffffffffffffffffffffffffffffffffff1690508a565b61088a816040516024016108089190610946565b6040516020818303038152906040527f41304fac000000000000000000000000000000000000000000000000000000007bffffffffffffffffffffffffffffffffffffffffffffffffffffffff19166020820180517bffffffffffffffffffffffffffffffffffffffffffffffffffffffff838183161783525050505061088d565b50565b60008151905060006a636f6e736f6c652e6c6f679050602083016000808483855afa5050505050565b600081519050919050565b600082825260208201905092915050565b60005b838110156108f05780820151818401526020810190506108d5565b60008484015250505050565b6000601f19601f8301169050919050565b6000610918826108b6565b61092281856108c1565b93506109328185602086016108d2565b61093b816108fc565b840191505092915050565b60006020820190508181036000830152610960818461090d565b905092915050565b6000604051905090565b600080fd5b600080fd5b600080fd5b600080fd5b7f4e487b7100000000000000000000000000000000000000000000000000000000600052604160045260246000fd5b6109be826108fc565b810181811067ffffffffffffffff821117156109dd576109dc610986565b5b80604052505050565b60006109f0610968565b90506109fc82826109b5565b919050565b600067ffffffffffffffff821115610a1c57610a1b610986565b5b610a25826108fc565b9050602081019050919050565b82818337600083830152505050565b6000610a54610a4f84610a01565b6109e6565b905082815260208101848484011115610a7057610a6f610981565b5b610a7b848285610a32565b509392505050565b600082601f830112610a9857610a9761097c565b5b8135610aa8848260208601610a41565b91505092915050565b60008115159050919050565b610ac681610ab1565b8114610ad157600080fd5b50565b600081359050610ae381610abd565b92915050565b600080600080600080600080610100898b031215610b0a57610b09610972565b5b600089013567ffffffffffffffff811115610b2857610b27610977565b5b610b348b828c01610a83565b985050602089013567ffffffffffffffff811115610b5557610b54610977565b5b610b618b828c01610a83565b975050604089013567ffffffffffffffff811115610b8257610b81610977565b5b610b8e8b828c01610a83565b965050606089013567ffffffffffffffff811115610baf57610bae610977565b5b610bbb8b828c01610a83565b955050608089013567ffffffffffffffff811115610bdc57610bdb610977565b5b610be88b828c01610a83565b94505060a089013567ffffffffffffffff811115610c0957610c08610977565b5b610c158b828c01610a83565b93505060c0610c268b828c01610ad4565b92505060e089013567ffffffffffffffff811115610c4757610c46610977565b5b610c538b828c01610a83565b9150509295985092959890939650565b6000819050919050565b610c7681610c63565b82525050565b6000602082019050610c916000830184610c6d565b92915050565b610ca081610c63565b8114610cab57600080fd5b50565b600081359050610cbd81610c97565b92915050565b600060208284031215610cd957610cd8610972565b5b6000610ce784828501610cae565b91505092915050565b610cf981610ab1565b82525050565b600073ffffffffffffffffffffffffffffffffffffffff82169050919050565b6000610d2a82610cff565b9050919050565b610d3a81610d1f565b82525050565b600061014082019050610d56600083018d610c6d565b8181036020830152610d68818c61090d565b90508181036040830152610d7c818b61090d565b90508181036060830152610d90818a61090d565b90508181036080830152610da4818961090d565b905081810360a0830152610db8818861090d565b905081810360c0830152610dcc818761090d565b9050610ddb60e0830186610cf0565b818103610100830152610dee818561090d565b9050610dfe610120830184610d31565b9b9a5050505050505050505050565b7f4e487b7100000000000000000000000000000000000000000000000000000000600052602260045260246000fd5b60006002820490506001821680610e5457607f821691505b602082108103610e6757610e66610e0d565b5b50919050565b7f4e487b7100000000000000000000000000000000000000000000000000000000600052601160045260246000fd5b6000610ea782610c63565b91507fffffffffffffffffffffffffffffffffffffffffffffffffffffffffffffffff8203610ed957610ed8610e6d565b5b600182019050919050565b60008190508160005260206000209050919050565b60006020601f8301049050919050565b600082821b905092915050565b600060088302610f467fffffffffffffffffffffffffffffffffffffffffffffffffffffffffffffffff82610f09565b610f508683610f09565b95508019841693508086168417925050509392505050565b6000819050919050565b6000610f8d610f88610f8384610c63565b610f68565b610c63565b9050919050565b6000819050919050565b610fa783610f72565b610fbb610fb382610f94565b848454610f16565b825550505050565b600090565b610fd0610fc3565b610fdb818484610f9e565b505050565b5b81811015610fff57610ff4600082610fc8565b600181019050610fe1565b5050565b601f8211156110445761101581610ee4565b61101e84610ef9565b8101602085101561102d578190505b61104161103985610ef9565b830182610fe0565b50505b505050565b600082821c905092915050565b600061106760001984600802611049565b1980831691505092915050565b60006110808383611056565b9150826002028217905092915050565b611099826108b6565b67ffffffffffffffff8111156110b2576110b1610986565b5b6110bc8254610e3c565b6110c7828285611003565b600060209050601f8311600181146110fa57600084156110e8578287015190505b6110f28582611074565b86555061115a565b601f19841661110886610ee4565b60005b828110156111305784890151825560018201915060208501945060208101905061110b565b8683101561114d5784890151611149601f891682611056565b8355505b6001600288020188555050505b50505050505056fea26469706673582212200cd9b47d6c7542be94d4a26d11967dbcbfdda22f419a5a99870e9715ea9e1c7f64736f6c63430008110033",
  "linkReferences": {},
  "deployedLinkReferences": {}
}