{
  "_format": "hh-sol-artifact-1",
  "contractName": "KlayBank",
  "sourceName": "contracts/KlayBank.sol",
  "abi": [
    {
      "anonymous": false,
      "inputs": [
        {
          "indexed": false,
          "internalType": "uint256",
          "name": "_amount",
          "type": "uint256"
        },
        {
          "indexed": false,
          "internalType": "address",
          "name": "_depositor",
          "type": "address"
        }
      ],
      "name": "depositEvent",
      "type": "event"
    },
    {
      "anonymous": false,
      "inputs": [
        {
          "indexed": false,
          "internalType": "uint256",
          "name": "_amount",
          "type": "uint256"
        },
        {
          "indexed": false,
          "internalType": "address",
          "name": "_depositor",
          "type": "address"
        },
        {
          "indexed": false,
          "internalType": "address",
          "name": "_beneficiary",
          "type": "address"
        }
      ],
      "name": "withdrawEvent",
      "type": "event"
    },
    {
      "inputs": [
        {
          "internalType": "address",
          "name": "",
          "type": "address"
        }
      ],
      "name": "balances",
      "outputs": [
        {
          "internalType": "uint256",
          "name": "",
          "type": "uint256"
        }
      ],
      "stateMutability": "view",
      "type": "function"
    },
    {
      "inputs": [],
      "name": "deposit",
      "outputs": [],
      "stateMutability": "payable",
      "type": "function"
    },
    {
      "inputs": [
        {
          "internalType": "address",
          "name": "_addr",
          "type": "address"
        }
      ],
      "name": "getBalance",
      "outputs": [
        {
          "internalType": "uint256",
          "name": "",
          "type": "uint256"
        }
      ],
      "stateMutability": "view",
      "type": "function"
    },
    {
      "inputs": [
        {
          "internalType": "address",
          "name": "_recipient",
          "type": "address"
        },
        {
          "internalType": "uint256",
          "name": "_amount",
          "type": "uint256"
        }
      ],
      "name": "withdraw",
      "outputs": [],
      "stateMutability": "nonpayable",
      "type": "function"
    }
  ],
  "bytecode": "0x608060405234801561001057600080fd5b50610735806100206000396000f3fe60806040526004361061003f5760003560e01c806327e235e314610044578063d0e30db014610081578063f3fef3a31461008b578063f8b2cb4f146100b4575b600080fd5b34801561005057600080fd5b5061006b6004803603810190610066919061041d565b6100f1565b6040516100789190610463565b60405180910390f35b610089610109565b005b34801561009757600080fd5b506100b260048036038101906100ad91906104aa565b610199565b005b3480156100c057600080fd5b506100db60048036038101906100d6919061041d565b610372565b6040516100e89190610463565b60405180910390f35b60006020528060005260406000206000915090505481565b346000803373ffffffffffffffffffffffffffffffffffffffff1673ffffffffffffffffffffffffffffffffffffffff16815260200190815260200160002060008282546101579190610519565b925050819055507f91430d5df50b6cd1e563547cca22f8b85daa2637e559188f718fe784c670321d343360405161018f92919061055c565b60405180910390a1565b600073ffffffffffffffffffffffffffffffffffffffff168273ffffffffffffffffffffffffffffffffffffffff1603610208576040517f08c379a00000000000000000000000000000000000000000000000000000000081526004016101ff90610608565b60405180910390fd5b6000803373ffffffffffffffffffffffffffffffffffffffff1673ffffffffffffffffffffffffffffffffffffffff16815260200190815260200160002054811115610289576040517f08c379a000000000000000000000000000000000000000000000000000000000815260040161028090610674565b60405180910390fd5b806000803373ffffffffffffffffffffffffffffffffffffffff1673ffffffffffffffffffffffffffffffffffffffff16815260200190815260200160002060008282546102d79190610694565b92505081905550806000808473ffffffffffffffffffffffffffffffffffffffff1673ffffffffffffffffffffffffffffffffffffffff168152602001908152602001600020600082825461032c9190610519565b925050819055507f424bb0687ac20b5630c98507def85c5bf68ba72ba0c1083bf2e87157cc18aa6a813384604051610366939291906106c8565b60405180910390a15050565b60008060008373ffffffffffffffffffffffffffffffffffffffff1673ffffffffffffffffffffffffffffffffffffffff168152602001908152602001600020549050919050565b600080fd5b600073ffffffffffffffffffffffffffffffffffffffff82169050919050565b60006103ea826103bf565b9050919050565b6103fa816103df565b811461040557600080fd5b50565b600081359050610417816103f1565b92915050565b600060208284031215610433576104326103ba565b5b600061044184828501610408565b91505092915050565b6000819050919050565b61045d8161044a565b82525050565b60006020820190506104786000830184610454565b92915050565b6104878161044a565b811461049257600080fd5b50565b6000813590506104a48161047e565b92915050565b600080604083850312156104c1576104c06103ba565b5b60006104cf85828601610408565b92505060206104e085828601610495565b9150509250929050565b7f4e487b7100000000000000000000000000000000000000000000000000000000600052601160045260246000fd5b60006105248261044a565b915061052f8361044a565b9250828201905080821115610547576105466104ea565b5b92915050565b610556816103df565b82525050565b60006040820190506105716000830185610454565b61057e602083018461054d565b9392505050565b600082825260208201905092915050565b7f4b6c617942616e6b3a2043616e6e6f742053656e6420746f204164647265737360008201527f205a65726f000000000000000000000000000000000000000000000000000000602082015250565b60006105f2602583610585565b91506105fd82610596565b604082019050919050565b60006020820190508181036000830152610621816105e5565b9050919050565b7f4b6c617942616e6b3a20496e73756666696369656e742042616c616e63650000600082015250565b600061065e601e83610585565b915061066982610628565b602082019050919050565b6000602082019050818103600083015261068d81610651565b9050919050565b600061069f8261044a565b91506106aa8361044a565b92508282039050818111156106c2576106c16104ea565b5b92915050565b60006060820190506106dd6000830186610454565b6106ea602083018561054d565b6106f7604083018461054d565b94935050505056fea26469706673582212205e3824f6397d9a36b58f6dfb167a97591fe732dab6b315d1b070e499a91d696d64736f6c63430008110033",
  "linkReferences": {},
  "deployedLinkReferences": {}
}