{
  "_format": "hh-sol-artifact-1",
  "contractName": "ERC721Staking",
  "sourceName": "contracts/ERC721Staking.sol",
  "abi": [
    {
      "inputs": [
        {
          "internalType": "contract IERC721",
          "name": "_nftCollection",
          "type": "address"
        },
        {
          "internalType": "contract IERC20",
          "name": "_rewardsToken",
          "type": "address"
        }
      ],
      "stateMutability": "nonpayable",
      "type": "constructor"
    },
    {
      "anonymous": false,
      "inputs": [
        {
          "indexed": true,
          "internalType": "address",
          "name": "previousOwner",
          "type": "address"
        },
        {
          "indexed": true,
          "internalType": "address",
          "name": "newOwner",
          "type": "address"
        }
      ],
      "name": "OwnershipTransferred",
      "type": "event"
    },
    {
      "inputs": [],
      "name": "claimRewards",
      "outputs": [],
      "stateMutability": "nonpayable",
      "type": "function"
    },
    {
      "inputs": [],
      "name": "nftCollection",
      "outputs": [
        {
          "internalType": "contract IERC721",
          "name": "",
          "type": "address"
        }
      ],
      "stateMutability": "view",
      "type": "function"
    },
    {
      "inputs": [],
      "name": "owner",
      "outputs": [
        {
          "internalType": "address",
          "name": "",
          "type": "address"
        }
      ],
      "stateMutability": "view",
      "type": "function"
    },
    {
      "inputs": [],
      "name": "renounceOwnership",
      "outputs": [],
      "stateMutability": "nonpayable",
      "type": "function"
    },
    {
      "inputs": [],
      "name": "rewardsToken",
      "outputs": [
        {
          "internalType": "contract IERC20",
          "name": "",
          "type": "address"
        }
      ],
      "stateMutability": "view",
      "type": "function"
    },
    {
      "inputs": [
        {
          "internalType": "uint256",
          "name": "_newValue",
          "type": "uint256"
        }
      ],
      "name": "setRewardsPerHour",
      "outputs": [],
      "stateMutability": "nonpayable",
      "type": "function"
    },
    {
      "inputs": [
        {
          "internalType": "uint256[]",
          "name": "_tokenIds",
          "type": "uint256[]"
        }
      ],
      "name": "stake",
      "outputs": [],
      "stateMutability": "nonpayable",
      "type": "function"
    },
    {
      "inputs": [
        {
          "internalType": "uint256",
          "name": "",
          "type": "uint256"
        }
      ],
      "name": "stakerAddress",
      "outputs": [
        {
          "internalType": "address",
          "name": "",
          "type": "address"
        }
      ],
      "stateMutability": "view",
      "type": "function"
    },
    {
      "inputs": [
        {
          "internalType": "address",
          "name": "",
          "type": "address"
        }
      ],
      "name": "stakers",
      "outputs": [
        {
          "internalType": "uint256",
          "name": "amountStaked",
          "type": "uint256"
        },
        {
          "internalType": "uint256",
          "name": "timeOfLastUpdate",
          "type": "uint256"
        },
        {
          "internalType": "uint256",
          "name": "unclaimedRewards",
          "type": "uint256"
        }
      ],
      "stateMutability": "view",
      "type": "function"
    },
    {
      "inputs": [
        {
          "internalType": "uint256",
          "name": "",
          "type": "uint256"
        }
      ],
      "name": "stakersArray",
      "outputs": [
        {
          "internalType": "address",
          "name": "",
          "type": "address"
        }
      ],
      "stateMutability": "view",
      "type": "function"
    },
    {
      "inputs": [
        {
          "internalType": "address",
          "name": "newOwner",
          "type": "address"
        }
      ],
      "name": "transferOwnership",
      "outputs": [],
      "stateMutability": "nonpayable",
      "type": "function"
    },
    {
      "inputs": [
        {
          "internalType": "address",
          "name": "_user",
          "type": "address"
        }
      ],
      "name": "userStakeInfo",
      "outputs": [
        {
          "internalType": "uint256",
          "name": "_tokensStaked",
          "type": "uint256"
        },
        {
          "internalType": "uint256",
          "name": "_availableRewards",
          "type": "uint256"
        }
      ],
      "stateMutability": "view",
      "type": "function"
    },
    {
      "inputs": [
        {
          "internalType": "uint256[]",
          "name": "_tokenIds",
          "type": "uint256[]"
        }
      ],
      "name": "withdraw",
      "outputs": [],
      "stateMutability": "nonpayable",
      "type": "function"
    }
  ],
  "bytecode": "0x60c0604052620186a06002553480156200001857600080fd5b50604051620026a8380380620026a883398181016040528101906200003e919062000264565b6200005e62000052620000d560201b60201c565b620000dd60201b60201c565b600180819055508173ffffffffffffffffffffffffffffffffffffffff1660a08173ffffffffffffffffffffffffffffffffffffffff16815250508073ffffffffffffffffffffffffffffffffffffffff1660808173ffffffffffffffffffffffffffffffffffffffff16815250505050620002ab565b600033905090565b60008060009054906101000a900473ffffffffffffffffffffffffffffffffffffffff169050816000806101000a81548173ffffffffffffffffffffffffffffffffffffffff021916908373ffffffffffffffffffffffffffffffffffffffff1602179055508173ffffffffffffffffffffffffffffffffffffffff168173ffffffffffffffffffffffffffffffffffffffff167f8be0079c531659141344cd1fd0a4f28419497f9722a3daafe3b4186f6b6457e060405160405180910390a35050565b600080fd5b600073ffffffffffffffffffffffffffffffffffffffff82169050919050565b6000620001d382620001a6565b9050919050565b6000620001e782620001c6565b9050919050565b620001f981620001da565b81146200020557600080fd5b50565b6000815190506200021981620001ee565b92915050565b60006200022c82620001c6565b9050919050565b6200023e816200021f565b81146200024a57600080fd5b50565b6000815190506200025e8162000233565b92915050565b600080604083850312156200027e576200027d620001a1565b5b60006200028e8582860162000208565b9250506020620002a1858286016200024d565b9150509250929050565b60805160a0516123bb620002ed6000396000818161040901528181610512015281816108f40152610c61015260008181610814015261119801526123bb6000f3fe608060405234801561001057600080fd5b50600436106100cf5760003560e01c80638da5cb5b1161008c578063983d95ce11610066578063983d95ce14610203578063b5a5e5091461021f578063d1af0c7d1461023b578063f2fde38b14610259576100cf565b80638da5cb5b146101835780639168ae72146101a157806394067045146101d3576100cf565b80630fbf0a93146100d4578063372500ab146100f05780634ead4327146100fa5780635357e9161461012b5780636588103b1461015b578063715018a614610179575b600080fd5b6100ee60048036038101906100e99190611886565b610275565b005b6100f86106e1565b005b610114600480360381019061010f9190611931565b61085b565b604051610122929190611977565b60405180910390f35b610145600480360381019061014091906119cc565b6108b3565b6040516101529190611a08565b60405180910390f35b6101636108f2565b6040516101709190611a82565b60405180910390f35b610181610916565b005b61018b61099e565b6040516101989190611a08565b60405180910390f35b6101bb60048036038101906101b69190611931565b6109c7565b6040516101ca93929190611a9d565b60405180910390f35b6101ed60048036038101906101e891906119cc565b6109f1565b6040516101fa9190611a08565b60405180910390f35b61021d60048036038101906102189190611886565b610a24565b005b610239600480360381019061023491906119cc565b610f98565b005b610243611196565b6040516102509190611af5565b60405180910390f35b610273600480360381019061026e9190611931565b6111ba565b005b6002600154036102ba576040517f08c379a00000000000000000000000000000000000000000000000000000000081526004016102b190611b6d565b60405180910390fd5b60026001819055506000600360003373ffffffffffffffffffffffffffffffffffffffff1673ffffffffffffffffffffffffffffffffffffffff168152602001908152602001600020600001541115610379576000610318336112b1565b905080600360003373ffffffffffffffffffffffffffffffffffffffff1673ffffffffffffffffffffffffffffffffffffffff168152602001908152602001600020600201600082825461036c9190611bbc565b92505081905550506103dd565b6005339080600181540180825580915050600190039060005260206000200160009091909190916101000a81548173ffffffffffffffffffffffffffffffffffffffff021916908373ffffffffffffffffffffffffffffffffffffffff1602179055505b600082829050905060005b81811015610634573373ffffffffffffffffffffffffffffffffffffffff167f000000000000000000000000000000000000000000000000000000000000000073ffffffffffffffffffffffffffffffffffffffff16636352211e86868581811061045657610455611bf0565b5b905060200201356040518263ffffffff1660e01b81526004016104799190611c1f565b602060405180830381865afa158015610496573d6000803e3d6000fd5b505050506040513d601f19601f820116820180604052508101906104ba9190611c4f565b73ffffffffffffffffffffffffffffffffffffffff1614610510576040517f08c379a000000000000000000000000000000000000000000000000000000000815260040161050790611cee565b60405180910390fd5b7f000000000000000000000000000000000000000000000000000000000000000073ffffffffffffffffffffffffffffffffffffffff166323b872dd333087878681811061056157610560611bf0565b5b905060200201356040518463ffffffff1660e01b815260040161058693929190611d0e565b600060405180830381600087803b1580156105a057600080fd5b505af11580156105b4573d6000803e3d6000fd5b5050505033600460008686858181106105d0576105cf611bf0565b5b90506020020135815260200190815260200160002060006101000a81548173ffffffffffffffffffffffffffffffffffffffff021916908373ffffffffffffffffffffffffffffffffffffffff1602179055508061062d90611d45565b90506103e8565b5080600360003373ffffffffffffffffffffffffffffffffffffffff1673ffffffffffffffffffffffffffffffffffffffff16815260200190815260200160002060000160008282546106879190611bbc565b9250508190555042600360003373ffffffffffffffffffffffffffffffffffffffff1673ffffffffffffffffffffffffffffffffffffffff1681526020019081526020016000206001018190555050600180819055505050565b6000600360003373ffffffffffffffffffffffffffffffffffffffff1673ffffffffffffffffffffffffffffffffffffffff1681526020019081526020016000206002015461072f336112b1565b6107399190611bbc565b90506000811161077e576040517f08c379a000000000000000000000000000000000000000000000000000000000815260040161077590611dd9565b60405180910390fd5b42600360003373ffffffffffffffffffffffffffffffffffffffff1673ffffffffffffffffffffffffffffffffffffffff168152602001908152602001600020600101819055506000600360003373ffffffffffffffffffffffffffffffffffffffff1673ffffffffffffffffffffffffffffffffffffffff1681526020019081526020016000206002018190555061085833827f000000000000000000000000000000000000000000000000000000000000000073ffffffffffffffffffffffffffffffffffffffff1661135f9092919063ffffffff16565b50565b600080600360008473ffffffffffffffffffffffffffffffffffffffff1673ffffffffffffffffffffffffffffffffffffffff168152602001908152602001600020600001546108aa846113e5565b91509150915091565b600581815481106108c357600080fd5b906000526020600020016000915054906101000a900473ffffffffffffffffffffffffffffffffffffffff1681565b7f000000000000000000000000000000000000000000000000000000000000000081565b61091e6114de565b73ffffffffffffffffffffffffffffffffffffffff1661093c61099e565b73ffffffffffffffffffffffffffffffffffffffff1614610992576040517f08c379a000000000000000000000000000000000000000000000000000000000815260040161098990611e45565b60405180910390fd5b61099c60006114e6565b565b60008060009054906101000a900473ffffffffffffffffffffffffffffffffffffffff16905090565b60036020528060005260406000206000915090508060000154908060010154908060020154905083565b60046020528060005260406000206000915054906101000a900473ffffffffffffffffffffffffffffffffffffffff1681565b600260015403610a69576040517f08c379a0000000000000000000000000000000000000000000000000000000008152600401610a6090611b6d565b60405180910390fd5b60026001819055506000600360003373ffffffffffffffffffffffffffffffffffffffff1673ffffffffffffffffffffffffffffffffffffffff1681526020019081526020016000206000015411610af6576040517f08c379a0000000000000000000000000000000000000000000000000000000008152600401610aed90611eb1565b60405180910390fd5b6000610b01336112b1565b905080600360003373ffffffffffffffffffffffffffffffffffffffff1673ffffffffffffffffffffffffffffffffffffffff1681526020019081526020016000206002016000828254610b559190611bbc565b92505081905550600083839050905060005b81811015610d18573373ffffffffffffffffffffffffffffffffffffffff1660046000878785818110610b9d57610b9c611bf0565b5b90506020020135815260200190815260200160002060009054906101000a900473ffffffffffffffffffffffffffffffffffffffff1673ffffffffffffffffffffffffffffffffffffffff1614610bf357600080fd5b600060046000878785818110610c0c57610c0b611bf0565b5b90506020020135815260200190815260200160002060006101000a81548173ffffffffffffffffffffffffffffffffffffffff021916908373ffffffffffffffffffffffffffffffffffffffff1602179055507f000000000000000000000000000000000000000000000000000000000000000073ffffffffffffffffffffffffffffffffffffffff166323b872dd3033888886818110610cb057610caf611bf0565b5b905060200201356040518463ffffffff1660e01b8152600401610cd593929190611d0e565b600060405180830381600087803b158015610cef57600080fd5b505af1158015610d03573d6000803e3d6000fd5b5050505080610d1190611d45565b9050610b67565b5080600360003373ffffffffffffffffffffffffffffffffffffffff1673ffffffffffffffffffffffffffffffffffffffff1681526020019081526020016000206000016000828254610d6b9190611ed1565b9250508190555042600360003373ffffffffffffffffffffffffffffffffffffffff1673ffffffffffffffffffffffffffffffffffffffff168152602001908152602001600020600101819055506000600360003373ffffffffffffffffffffffffffffffffffffffff1673ffffffffffffffffffffffffffffffffffffffff1681526020019081526020016000206000015403610f8b5760005b600580549050811015610f89573373ffffffffffffffffffffffffffffffffffffffff1660058281548110610e3e57610e3d611bf0565b5b9060005260206000200160009054906101000a900473ffffffffffffffffffffffffffffffffffffffff1673ffffffffffffffffffffffffffffffffffffffff1603610f785760056001600580549050610e989190611ed1565b81548110610ea957610ea8611bf0565b5b9060005260206000200160009054906101000a900473ffffffffffffffffffffffffffffffffffffffff1660058281548110610ee857610ee7611bf0565b5b9060005260206000200160006101000a81548173ffffffffffffffffffffffffffffffffffffffff021916908373ffffffffffffffffffffffffffffffffffffffff1602179055506005805480610f4257610f41611f05565b5b6001900381819060005260206000200160006101000a81549073ffffffffffffffffffffffffffffffffffffffff021916905590555b80610f8290611d45565b9050610e06565b505b5050600180819055505050565b610fa06114de565b73ffffffffffffffffffffffffffffffffffffffff16610fbe61099e565b73ffffffffffffffffffffffffffffffffffffffff1614611014576040517f08c379a000000000000000000000000000000000000000000000000000000000815260040161100b90611e45565b60405180910390fd5b6000600580548060200260200160405190810160405280929190818152602001828054801561109857602002820191906000526020600020905b8160009054906101000a900473ffffffffffffffffffffffffffffffffffffffff1673ffffffffffffffffffffffffffffffffffffffff168152602001906001019080831161104e575b5050505050905060008151905060005b818110156111895760008382815181106110c5576110c4611bf0565b5b602002602001015190506110d8816112b1565b600360008373ffffffffffffffffffffffffffffffffffffffff1673ffffffffffffffffffffffffffffffffffffffff16815260200190815260200160002060020160008282546111299190611bbc565b9250508190555042600360003373ffffffffffffffffffffffffffffffffffffffff1673ffffffffffffffffffffffffffffffffffffffff16815260200190815260200160002060010181905550508061118290611d45565b90506110a8565b5082600281905550505050565b7f000000000000000000000000000000000000000000000000000000000000000081565b6111c26114de565b73ffffffffffffffffffffffffffffffffffffffff166111e061099e565b73ffffffffffffffffffffffffffffffffffffffff1614611236576040517f08c379a000000000000000000000000000000000000000000000000000000000815260040161122d90611e45565b60405180910390fd5b600073ffffffffffffffffffffffffffffffffffffffff168173ffffffffffffffffffffffffffffffffffffffff16036112a5576040517f08c379a000000000000000000000000000000000000000000000000000000000815260040161129c90611fa6565b60405180910390fd5b6112ae816114e6565b50565b600080600360008473ffffffffffffffffffffffffffffffffffffffff1673ffffffffffffffffffffffffffffffffffffffff16815260200190815260200160002060405180606001604052908160008201548152602001600182015481526020016002820154815250509050610e1060025482600001518360200151426113399190611ed1565b6113439190611fc6565b61134d9190611fc6565b6113579190612037565b915050919050565b6113e08363a9059cbb60e01b848460405160240161137e929190612068565b604051602081830303815290604052907bffffffffffffffffffffffffffffffffffffffffffffffffffffffff19166020820180517bffffffffffffffffffffffffffffffffffffffffffffffffffffffff83818316178352505050506115aa565b505050565b600080600360008473ffffffffffffffffffffffffffffffffffffffff1673ffffffffffffffffffffffffffffffffffffffff168152602001908152602001600020600001540361147a57600360008373ffffffffffffffffffffffffffffffffffffffff1673ffffffffffffffffffffffffffffffffffffffff1681526020019081526020016000206002015490506114d9565b6000611485836112b1565b600360008573ffffffffffffffffffffffffffffffffffffffff1673ffffffffffffffffffffffffffffffffffffffff168152602001908152602001600020600201546114d29190611bbc565b9050809150505b919050565b600033905090565b60008060009054906101000a900473ffffffffffffffffffffffffffffffffffffffff169050816000806101000a81548173ffffffffffffffffffffffffffffffffffffffff021916908373ffffffffffffffffffffffffffffffffffffffff1602179055508173ffffffffffffffffffffffffffffffffffffffff168173ffffffffffffffffffffffffffffffffffffffff167f8be0079c531659141344cd1fd0a4f28419497f9722a3daafe3b4186f6b6457e060405160405180910390a35050565b600061160c826040518060400160405280602081526020017f5361666545524332303a206c6f772d6c6576656c2063616c6c206661696c65648152508573ffffffffffffffffffffffffffffffffffffffff166116719092919063ffffffff16565b905060008151111561166c578080602001905181019061162c91906120c9565b61166b576040517f08c379a000000000000000000000000000000000000000000000000000000000815260040161166290612168565b60405180910390fd5b5b505050565b60606116808484600085611689565b90509392505050565b6060824710156116ce576040517f08c379a00000000000000000000000000000000000000000000000000000000081526004016116c5906121fa565b60405180910390fd5b6116d78561179d565b611716576040517f08c379a000000000000000000000000000000000000000000000000000000000815260040161170d90612266565b60405180910390fd5b6000808673ffffffffffffffffffffffffffffffffffffffff16858760405161173f91906122f7565b60006040518083038185875af1925050503d806000811461177c576040519150601f19603f3d011682016040523d82523d6000602084013e611781565b606091505b50915091506117918282866117b0565b92505050949350505050565b600080823b905060008111915050919050565b606083156117c057829050611810565b6000835111156117d35782518084602001fd5b816040517f08c379a00000000000000000000000000000000000000000000000000000000081526004016118079190612363565b60405180910390fd5b9392505050565b600080fd5b600080fd5b600080fd5b600080fd5b600080fd5b60008083601f84011261184657611845611821565b5b8235905067ffffffffffffffff81111561186357611862611826565b5b60208301915083602082028301111561187f5761187e61182b565b5b9250929050565b6000806020838503121561189d5761189c611817565b5b600083013567ffffffffffffffff8111156118bb576118ba61181c565b5b6118c785828601611830565b92509250509250929050565b600073ffffffffffffffffffffffffffffffffffffffff82169050919050565b60006118fe826118d3565b9050919050565b61190e816118f3565b811461191957600080fd5b50565b60008135905061192b81611905565b92915050565b60006020828403121561194757611946611817565b5b60006119558482850161191c565b91505092915050565b6000819050919050565b6119718161195e565b82525050565b600060408201905061198c6000830185611968565b6119996020830184611968565b9392505050565b6119a98161195e565b81146119b457600080fd5b50565b6000813590506119c6816119a0565b92915050565b6000602082840312156119e2576119e1611817565b5b60006119f0848285016119b7565b91505092915050565b611a02816118f3565b82525050565b6000602082019050611a1d60008301846119f9565b92915050565b6000819050919050565b6000611a48611a43611a3e846118d3565b611a23565b6118d3565b9050919050565b6000611a5a82611a2d565b9050919050565b6000611a6c82611a4f565b9050919050565b611a7c81611a61565b82525050565b6000602082019050611a976000830184611a73565b92915050565b6000606082019050611ab26000830186611968565b611abf6020830185611968565b611acc6040830184611968565b949350505050565b6000611adf82611a4f565b9050919050565b611aef81611ad4565b82525050565b6000602082019050611b0a6000830184611ae6565b92915050565b600082825260208201905092915050565b7f5265656e7472616e637947756172643a207265656e7472616e742063616c6c00600082015250565b6000611b57601f83611b10565b9150611b6282611b21565b602082019050919050565b60006020820190508181036000830152611b8681611b4a565b9050919050565b7f4e487b7100000000000000000000000000000000000000000000000000000000600052601160045260246000fd5b6000611bc78261195e565b9150611bd28361195e565b9250828201905080821115611bea57611be9611b8d565b5b92915050565b7f4e487b7100000000000000000000000000000000000000000000000000000000600052603260045260246000fd5b6000602082019050611c346000830184611968565b92915050565b600081519050611c4981611905565b92915050565b600060208284031215611c6557611c64611817565b5b6000611c7384828501611c3a565b91505092915050565b7f43616e2774207374616b6520746f6b656e7320796f7520646f6e2774206f776e60008201527f2100000000000000000000000000000000000000000000000000000000000000602082015250565b6000611cd8602183611b10565b9150611ce382611c7c565b604082019050919050565b60006020820190508181036000830152611d0781611ccb565b9050919050565b6000606082019050611d2360008301866119f9565b611d3060208301856119f9565b611d3d6040830184611968565b949350505050565b6000611d508261195e565b91507fffffffffffffffffffffffffffffffffffffffffffffffffffffffffffffffff8203611d8257611d81611b8d565b5b600182019050919050565b7f596f752068617665206e6f207265776172647320746f20636c61696d00000000600082015250565b6000611dc3601c83611b10565b9150611dce82611d8d565b602082019050919050565b60006020820190508181036000830152611df281611db6565b9050919050565b7f4f776e61626c653a2063616c6c6572206973206e6f7420746865206f776e6572600082015250565b6000611e2f602083611b10565b9150611e3a82611df9565b602082019050919050565b60006020820190508181036000830152611e5e81611e22565b9050919050565b7f596f752068617665206e6f20746f6b656e73207374616b656400000000000000600082015250565b6000611e9b601983611b10565b9150611ea682611e65565b602082019050919050565b60006020820190508181036000830152611eca81611e8e565b9050919050565b6000611edc8261195e565b9150611ee78361195e565b9250828203905081811115611eff57611efe611b8d565b5b92915050565b7f4e487b7100000000000000000000000000000000000000000000000000000000600052603160045260246000fd5b7f4f776e61626c653a206e6577206f776e657220697320746865207a65726f206160008201527f6464726573730000000000000000000000000000000000000000000000000000602082015250565b6000611f90602683611b10565b9150611f9b82611f34565b604082019050919050565b60006020820190508181036000830152611fbf81611f83565b9050919050565b6000611fd18261195e565b9150611fdc8361195e565b9250828202611fea8161195e565b9150828204841483151761200157612000611b8d565b5b5092915050565b7f4e487b7100000000000000000000000000000000000000000000000000000000600052601260045260246000fd5b60006120428261195e565b915061204d8361195e565b92508261205d5761205c612008565b5b828204905092915050565b600060408201905061207d60008301856119f9565b61208a6020830184611968565b9392505050565b60008115159050919050565b6120a681612091565b81146120b157600080fd5b50565b6000815190506120c38161209d565b92915050565b6000602082840312156120df576120de611817565b5b60006120ed848285016120b4565b91505092915050565b7f5361666545524332303a204552433230206f7065726174696f6e20646964206e60008201527f6f74207375636365656400000000000000000000000000000000000000000000602082015250565b6000612152602a83611b10565b915061215d826120f6565b604082019050919050565b6000602082019050818103600083015261218181612145565b9050919050565b7f416464726573733a20696e73756666696369656e742062616c616e636520666f60008201527f722063616c6c0000000000000000000000000000000000000000000000000000602082015250565b60006121e4602683611b10565b91506121ef82612188565b604082019050919050565b60006020820190508181036000830152612213816121d7565b9050919050565b7f416464726573733a2063616c6c20746f206e6f6e2d636f6e7472616374000000600082015250565b6000612250601d83611b10565b915061225b8261221a565b602082019050919050565b6000602082019050818103600083015261227f81612243565b9050919050565b600081519050919050565b600081905092915050565b60005b838110156122ba57808201518184015260208101905061229f565b60008484015250505050565b60006122d182612286565b6122db8185612291565b93506122eb81856020860161229c565b80840191505092915050565b600061230382846122c6565b915081905092915050565b600081519050919050565b6000601f19601f8301169050919050565b60006123358261230e565b61233f8185611b10565b935061234f81856020860161229c565b61235881612319565b840191505092915050565b6000602082019050818103600083015261237d818461232a565b90509291505056fea26469706673582212209aca14f830a2f7b222767b62206294253d8485faaf06f43f5e68da8749e985bb64736f6c63430008110033",
  "linkReferences": {},
  "deployedLinkReferences": {}
}